:03000000020E5E8F
:0C0E5E00787FE4F6D8FD758107020CF0E7
:0F0E3300120E9FE5B254FC4403F5B253B1FC22FA
:100CF000120E33D2B0C2B17FF47E01120CB7C2B073
:0B0D0000D2B17FF47E01120CB780E836
:100E130043BC400000E5BC30E5FB53BCDFAFBD2263
:100CD40043BC400000E5BC30E5FB53BCDFAFBDEFD7
:0B0CE400FEADBE7C00E42DFFEC3EFEE8
:010CEF0022E2
:1005AE007802EBF208EAF208E9F243BA8090FE8193
:1005BE00E054F04401F090FE82E030E6F9E054BFE2
:1005CE00F0EF54FE90FE86F090FE81E054F044026F
:1005DE00F090FE82E030E6F9E054BFF090FE81E04C
:1005EE0054F04403F090FE82E030E6F9E054BFF0A0
:1005FE0090FE86EDF090FE81E054F04402F090FE05
:10060E0082E030E6F9E054BFF090FE81E054F04411
:10061E0003F090FE82E030E6F9804E780508E2FFA6
:10062E0024FFF218E2FE34FFF2EF4E60427802E24F
:10063E00FB0808E2F92401F218E2FA3400F2120083
:10064E000390FE86F090FE81E054F04402F090FE9E
:10065E0082E030E6F9E054BFF090FE81E054F044C1
:10066E0003F090FE82E030E6F9E054BFF080AC90EB
:10067E00FE81E054F04406F090FE82E030E6F9E0B0
:09068E0054BFF053BA7F7F002233
:100341007809EBF208EAF208E9F243BA8090FE81FB
:10035100E054F04401F090FE82E030E6F9E054BF51
:10036100F0EF54FE90FE86F090FE81E054F04402DE
:10037100F090FE82E030E6F9E054BFF090FE81E0BB
:1003810054F04403F090FE82E030E6F9E054BFF00F
:1003910090FE86EDF090FE81E054F04402F090FE74
:1003A10082E030E6F9E054BFF090FE81E054F04481
:1003B10003F090FE82E030E6F9E054BFF090FE8158
:1003C100E054F04401F090FE82E030E6F9E054BFE1
:1003D100F0EF440190FE86F090FE81E054F044027B
:1003E100F090FE82E030E6F9E054BFF090FE81E04B
:1003F10054F04403F090FE82E030E6F98079780C05
:1004010008E2FF24FFF218E2FE34FFF2EF4E606DC6
:1004110090FE81E054F04404F090FE82E030E6F971
:10042100E054BFF090FE87E0FF7809E2FB0808E2A4
:10043100F92401F218E2FA3400F2EF12001C780DEF
:10044100E2700218E2701990FE82E04401F090FE21
:1004510081E054F04405F090FE82E030E6F9801727
:1004610090FE82E054FEF090FE81E054F04405F0ED
:1004710090FE82E030E6F9E054BFF0808190FE8189
:10048100E054F04406F090FE82E030E6F9E054BF1B
:07049100F053BA7F7F002247
:100498007811EBF208EAF208E9F243BA8090FE819B
:1004A800E054F04401F090FE82E030E6F9E054BFF9
:1004B800F0EF54FE90FE86F090FE81E054F0440286
:1004C800F090FE82E030E6F9E054BFF090FE81E063
:1004D80054F04403F090FE82E030E6F9E054BFF0B7
:1004E800EC90FE86F090FE81E054F04402F090FE1D
:1004F80082E030E6F9E054BFF090FE81E054F04429
:1005080003F090FE82E030E6F9E054BFF0ED90FE93
:1005180086F090FE81E054F04402F090FE82E030D4
:10052800E6F9E054BFF090FE81E054F04403F09007
:10053800FE82E030E6F9804E781408E2FF24FFF2EC
:1005480018E2FE34FFF2EF4E60427811E2FB080831
:10055800E2F92401F218E2FA3400F212000390FEE4
:1005680086F090FE81E054F04402F090FE82E03084
:10057800E6F9E054BFF090FE81E054F04403F090B7
:10058800FE82E030E6F9E054BFF080AC90FE81E0F6
:1005980054F04406F090FE82E030E6F9E054BFF0F3
:0605A80053BA7F7F002220
:1001B5007816EFF27819EBF208EAF208E9F243BA99
:1001C5008090FE81E054F04401F090FE82E030E63C
:1001D500F9E054BFF07816E254FE90FE86F090FEEA
:1001E50081E054F04402F090FE82E030E6F9E054FC
:1001F500BFF090FE81E054F04403F090FE82E030C1
:10020500E6F9E054BFF0EC90FE86F090FE81E054F4
:10021500F04402F090FE82E030E6F9E054BFF09041
:10022500FE81E054F04403F090FE82E030E6F9E010
:1002350054BFF0ED90FE86F090FE81E054F044024C
:10024500F090FE82E030E6F9E054BFF090FE81E0E8
:1002550054F04403F090FE82E030E6F9E054BFF03C
:1002650090FE81E054F04401F090FE82E030E6F922
:10027500E054BFF07816E2440190FE86F090FE81CE
:10028500E054F04402F090FE82E030E6F9E054BF1D
:10029500F090FE81E054F04403F090FE82E030E6F9
:1002A500F98079781C08E2FF24FFF218E2FE34FF9A
:1002B500F2EF4E606D90FE81E054F04404F090FE44
:1002C50082E030E6F9E054BFF090FE87E0FF781950
:1002D500E2FB0808E2F92401F218E2FA3400F2EF31
:1002E50012001C781DE2700218E2701990FE82E07F
:1002F5004401F090FE81E054F04405F090FE82E068
:1003050030E6F9801790FE82E054FEF090FE81E021
:1003150054F04405F090FE82E030E6F9E054BFF079
:10032500808190FE81E054F04406F090FE82E0303A
:0C033500E6F9E054BFF053BA7F7F0022CD
:0B0E7600EF1392D3EFC3131392D422AA
:0C0E6A00EF25E0FFE58E54FD4FF58E22D1
:0A0AA700781EEBF208EAF208E9F20B
:100AB10075BA80E4FFEF24E0FDE434FD8D82F58317
:100AC100E0FE781EE2FB08E2FA08E2F98F82758304
:0D0AD10000EE12002E0FEFB420DBE4F5BAAA
:010ADE0022F5
:0D0E51008FCFE5CD30E7FB43CDC0AFCF2202
:100A35007821EBF208EAF208E9F2AF051DEF60282C
:100A45007821E2FB08E2FA08E2F9120003FF120E30
:100A5500517821E2FB0808E2F92401F218E2FA34A0
:090A650000F2EF12001C80D22205
:030E9C000E6603DC
:010E9F002230
:100D0B00E4FBFAF59D8FA6AF058F9FF59EEB1B704D
:060D1B00011A144A70F7F2
:010D210022AF
:100CB700900E9CE493FC740193FDED1D70011C14D0
:0C0CC7004C70F7EF1F70011E144E70E41B
:010CD30022FE
:100DEF00900E9EE493FDDDFEEF1F70011E144E70FA
:010DFF00EF04
:010E000022CF
:0A07E70008E2FE08E2FF7BFF7A0043
:0F07F1007824EEF208EFF208EAF208EBF2A9051D
:100800000812019C02328000E9701B7828E2FC0883
:10081000E2FD08E2FE08E2FFE47B0CFAF9F81200C0
:10082000ED78281201907828E2FC08E2FD08E2FE4B
:1008300008E2FFC006C0077824E2FE08E2FBAA0631
:10084000E4F9F8D007D0061200ED7828120190786C
:1008500026E2FE08E2FFE4FCFD08E2FB08E2F908FC
:10086000E2FA08E2CBF8D312017F4004E4FEFF2253
:1008700078280808E2FE08E2FFC37827E29FFF1805
:03088000E29EFEF7
:010883002252
:0C088400782CEFF208EAF208EBF2AE0567
:10089000782CE2FDC43333335480FFE58E547F4F10
:1008A000F58EE58954FC4EF589EEB4020F1207E788
:1008B000782FEEF208EFF2F58CF58A22782DE2FE21
:1008C00008E2FF782CE2FD74FFFBFA1207F1782FA3
:1008D000EEF208EFF218E2FC08E2FDECF58CEDF523
:0108E0008A8D
:0108E10022F4
:0C08E2007831EFF208EAF208EBF2AE0504
:1008EE007831E2FDC4333354C0FFE58E54BF4FF56B
:1008FE008EEEC454F0FFE58954CF4FF589EEB40265
:10090E000F1207E77834EEF208EFF2F58DF58B2231
:10091E007832E2FE08E2FF7831E2FD1207ED78341C
:10092E00EEF208EFF218E2FC08E2FDECF58DEDF5C3
:01093E008B2D
:01093F002295
:0C069700EFF208EDF2AE02AF0318E2FB38
:0A06A3007836EEF208EFF208EDF2EF
:1006AD000812019C02328000EB701B7839E2FC08C5
:1006BD00E2FD08E2FE08E2FFE47B0CFAF9F8120015
:1006CD00ED78391201907839E2FC08E2FD08E2FE7E
:1006DD0008E2FFC004C005C006C0077838E2240157
:1006ED00FFE433FE7836E2FC08E2FD120050AB0762
:1006FD00AA06E4F9F8D007D006D005D0041200ED13
:10070D007839120190E47FFF7EFFFDFC7839E2FB22
:10071D0008E2F908E2FA08E2CBF8D312017F4004AF
:10072D00E4FEFF2278390808E2FE08E2FFC374FFF9
:06073D009FFF74FF9EFE09
:010743002293
:020C4800783DF5
:100C4A00120697AD07AC06783DE225E025E0FFE500
:100C5A008E54FB4FF58E43BA8008E290FEA2F05301
:0A0C6A00BA7FECF5D6AF05EFF5D721
:010C7400225D
:0209C100783F7D
:1009C300120697AD07AC06783FE225E0FFE5D15468
:1009D300FD4FF5D143BA8008E290FEA3F053BA7FEE
:1009E300ECF5D4AF05EFF5D57843E2C43354E0FF1B
:0709F300E5AF54DF4FF5AF43
:0109FA0022DA
:020984007844B5
:10098600120697AD07AC067844E2C43354E0FFE59F
:10099600D154DF4FF5D143BA8008E290FEA4F0535C
:1009A600BA7FECF5D2AF05EFF5D37848E2C433331E
:0A09B60054C0FFE5AF54BF4FF5AF8A
:0109C0002214
:10074400E2FC08E2FD08E2FE08E2FF784E120190A6
:080754007F007E807D327C02F3
:05075C00784912019034
:10076100E47F04FEFDFC784EE2FB08E2F908E2FAC0
:1007710008E2CBF8120062C004A905AA06AB07780B
:1007810049E2FC08E2FD08E2FE08E2FFD0001200A7
:10079100ED7852120190784DE2701B7852E2FC081C
:1007A100E2FD08E2FE08E2FFE47B0CFAF9F8120030
:1007B100ED7852120190E47FFF7EFFFDFC7852E25A
:1007C100FB08E2F908E2FA08E2CBF8D312017F4014
:1007D10004E4FEFF2278520808E2FE08E2FFC3E4C7
:0507E1009FFFE49EFEF5
:0107E60022F0
:10094000E58E54FE4FF58EEF701BEDC4333354C06B
:10095000FFE58E54BF4FF58E5389CFEAFF8F8DEBA5
:10096000F58BD28E22AF05EF25E025E0FFE58E5412
:10097000FB4FF58EEAFF8FD6EBF5D7E58E54EF44AB
:0409800010F58E22BE
:070C75007856EFF208EDF2E2
:100C7C00C29FD29E784DF27858120744AB07AA0651
:0A0C8C007856E2FF08E2FD0209407D
:070C9600785CEFF208EDF2BB
:100C9D00D29FD29E784DF2785E120744AB07AA061A
:0A0CAD00785CE2FF08E2FD02094056
:080E8C008F993099FDC29922F3
:100DC300AE07EEC4540F900E2393FF120E8CEE5415
:060DD3000F93FF020E8CDD
:100B16007862EBF208EAF208E9F27862E2FB08E2B0
:100B2600FA08E2F9120003601A7862E2FB0808E2AA
:100B3600F92401F218E2FA3400F2120003FF120E51
:040B46008C80D722A6
:080E94008F993099FDC29922EB
:040C18007865EFF21A
:100C1C00784DF27866120744AD07AC067865E2258C
:100C2C00E025E0FFE58E54FB4FF58EECF5D6AF05D5
:0B0C3C00EFF5D7E58E54EF4410F58E65
:010C4700228A
:0B0E81008F9BE59A30E1FB539AFD22A5
:100DD900AE07EEC4540F900E2393FF120E81EE540A
:060DE9000F93FF020E81D2
:100B4A00786AEBF208EAF208E9F2786AE2FB08E26C
:100B5A00FA08E2F9120003601A786AE2FB0808E26E
:100B6A00F92401F218E2FA3400F2120003FF120E1D
:040B7A008180D7227D
:040B7E00786DEFF2AD
:100B820053ACBFE2784DF2786E120744AD07AC0663
:100B9200786DE225E025E0FFE58E54FB4FF58EEC03
:0F0BA200F5D6AF05EFF5D7E58E54EF4410F58E7D
:010BB1002221
:040ADF007872EFF248
:100AE300E5AC54BF4440F5AC784DEFF27873120790
:100AF30044AD07AC067872E225E0FFE5D154FD4F23
:100B0300F5D1ECF5D4AF05EFF5D5E5D154F74408AD
:020B1300F5D11A
:010B150022BD
:040BB2007877EFF26F
:100BB6005384BFE2784DF27878120744AD07AC064D
:100BC6007877E225E025E0FFE58E54FB4FF58EECC5
:0F0BD600F5D6AF05EFF5D7E58E54EF4410F58E49
:010BE50022ED
:040A6E00787CEFF2AF
:100A7200E58454BF4440F584784DEFF2787D120747
:100A820044AD07AC06787CE2C43354E0FFE5D154B0
:100A9200DF4FF5D1ECF5D2AF05EFF5D3E5D1547FB9
:040AA2004480F5D1C6
:010AA600222D
:100E0100E5FC20E7FBEF4480F5FCE5FC20E7FBAFC8
:020E1100EC22D1
:0F0E4200E5FC20E7FBEF547FF5FCAF058FEC22BA
:0C09FB007881EBF208EAF208E9F2AE079E
:100A07007F16120E01AD07AC05AF051DEF601CAFD9
:100A170006120E017881E2FB0808E2F92401F218B8
:0D0A2700E2FA3400F2EF12001C80DEAF0492
:010A3400229F
:100BE6007885EBF208EAF208E9F2AE077888E2FFC8
:100BF60014F2EF601CAF067885E2FB0808E2F924E0
:100C060001F218E2FA3400F2120003FD120E4280DD
:020C1600DB22DF
:100E2300303132333435363738394142434445461D
:100D2200759850438E40538EFE53890F758B8F7585
:070D32008DFDC2ABD28E2241
:100D3900759850438E40538EFE53890F758BCC7531
:070D49008DFFC2ABD28E2228
:100D5000759850438E40538EFE53890F758BA07546
:070D60008DFCC2ABD28E2214
:100D6700759850438E40538EFE53890F758BB87517
:070D77008DFFC2ABD28E22FA
:100D7E00759850438E40538EFE53890F758B707548
:070D8E008DFCC2ABD28E22E6
:100D9500759850438E40538EFE53890F758B407561
:070DA5008DFCC2ABD28E22CF
:100DAC00759850438E40538EFE53890F758BB075DA
:070DBC008DFFC2ABD28E22B5
:10000300BB010689828A83E0225002E722BBFE02FB
:09001300E32289828A83E493222E
:10001C00BB010689828A83F0225002F722BBFE01C3
:02002C00F322BD
:10002E00F8BB010DE58229F582E5833AF583E8F008
:10003E00225006E92582C8F622BBFE05E92582C8B4
:02004E00F2229C
:10005000EF8DF0A4A8F0CF8CF0A428CE8DF0A42EC4
:02006000FE227E
:10006200E88FF0A4CC8BF0A42CFCE98EF0A42CFC3D
:100072008AF0EDA42CFCEA8EF0A4CDA8F08BF0A4BB
:100082002DCC3825F0FDE98FF0A42CCD35F0FCEB1A
:100092008EF0A4FEA9F0EB8FF0A4CFC5F02ECD39DF
:0F00A200FEE43CFCEAA42DCE35F0FDE43CFC224C
:1000B10075F008758200EF2FFFEE33FECD33CDCC06
:1000C10033CCC58233C5829BED9AEC99E582984089
:1000D1000CF582EE9BFEED9AFDEC99FC0FD5F0D666
:1000E100E4CEFBE4CDFAE4CCF9A88222B800C1B990
:1000F1000059BA002DEC8BF084CFCECDFCE5F0CBCE
:10010100F97818EF2FFFEE33FEED33FDEC33FCEB06
:1001110033FB10D703994004EB99FB0FD8E5E4F9C1
:10012100FA227818EF2FFFEE33FEED33FDEC33FCAE
:10013100C933C910D7059BE99A4007EC9BFCE99AA2
:10014100F90FD8E0E4C9FAE4CCFB2275F010EF2FE7
:10015100FFEE33FEED33FDCC33CCC833C810D707E7
:100161009BEC9AE899400AED9BFDEC9AFCE899F822
:0E0171000FD5F0DAE4CDFBE4CCFAE4C8F922B5
:10017F00EB9FF5F0EA9E42F0E99D42F0E89C45F0D6
:01018F00224D
:0C019000ECF208EDF208EEF208EFF222AB
:10019C00D083D082E493F208740193F20874029332
:0901AC00F208740393F274047369
:00000001FF
