:030000000207F9FB
:0C07F900787FE4F6D8FD758120020840EE
:03005D000D0A0089
:100B1200A027253F065B4F666D7D077F6F4080777C
:100B22007C395E79713D76061E753837545C736B7D
:100B3200506D781C1C2A766E5B00831A01020381B9
:0A0B42000400C180C181821400008C
:100A9700EF1392B4EFC313139290EF1313543F1352
:100AA7009292EF131313541F139293EFC4540F131F
:100AB7009294EFC4135407139295EFC4131354037E
:0E0AC700139296EFC413131354011392972247
:070EA000D2B1D2B0D2B3229F
:100D4D00AE07120EA0741A2EF8E2FF120A97EE14D7
:100D5D00600A14600A24027008C2B122C2B022C215
:020D6D00B322AF
:1008EE007800E2FB08E2F908E2FA08E2CBF8C00071
:1008FE00781DE2FC08E2FD08E2FE08E2D000C39B90
:10090E00FFEE9AFEED99FDEC98FCE47B05FAF9F802
:10091E00C31202034029781DE2FC08E2FD08E2FE44
:10092E0008E2FF78001202147804E2FF120D4D78EF
:0F093E0004E2C394025004E204F222E47804F2CB
:01094D002287
:10026600789D7402F27816E2FF7805E26F6007EF78
:10027600F2E408F208F27805E214700302032B1484
:10028600700302034B240260030203787806E2FE41
:1002960008E2FFE4FCFD7821E2FB08E2F908E2FA55
:1002A60008E2CBF8C3120203700302037878210830
:1002B60008E2FF08E27806CF8045789DE2C36480B5
:1002C60094804053D37807E2940018E294004035B6
:1002D600E2FA08E2FB7C007D0AFFAE02120091748E
:1002E600252DF8E2FF789DE2FE14F2741A2EF8EF3F
:1002F600F27C007D0AAF03AE021200917806EEF2A0
:1003060008EFF280B5784BE2FF789DE2FE14F274B6
:100316001A2EF8EFF280A3781BE2FF7830E2FEEFA8
:100326004E781BF2227818E2FF7E007807E26F70A3
:100336000218E2603D7840E2781AF2783FE2781BD4
:10034600F27818801E7819E2FF7E007807E26F7057
:100356000218E2601D7840E2781AF27845E2781BCE
:10036600F27819E22425F8E2781CF27806EEF20813
:02037600EFF2A4
:010378002262
:100DF000E5BC54F0440AF5BCE5DE54F04401F5DEF0
:0C0E000053DEDFE5BC547F4480F5BC22CB
:100885007808E2FB08E2F908E2FA08E2CBF8C000D2
:10089500781DE2FC08E2FD08E2FE08E2D000C39BF9
:1008A500FFEE9AFEED99FDEC98FCE47BC8FAF9F8A9
:1008B500C31202035032781DE2FC08E2FD08E2FE95
:1008C50008E2FF7808120214120E7DEF75F005A4F8
:1008D500FFAEF07C007D7E120239E47BFFFAF9F869
:0808E5001201717821120214C6
:0108ED0022E8
:0C03790020B6030204093000030204094E
:10038500780CE2FB08E2F908E2FA08E2CBF8C000D3
:10039500781DE2FC08E2FD08E2FE08E2D000C39BFE
:1003A500FFEE9AFEED99FDEC98FC789E120214D2B0
:1003B50000E47FC8FEFDFC789EE2FB08E2F908E256
:1003C500FA08E2CBF8D312020340037F0222E47F4E
:1003D5000AFEFDFC789EE2FB08E2F908E2FA08E273
:1003E500CBF8D31202034036E47F1EFEFDFC789E57
:1003F500E2FB08E2F908E2FA08E2CBF81202035040
:040405001D7F012234
:1004090020B617300014C200781DE2FC08E2FD088E
:0C041900E2FE08E2FF780C1202147F00E3
:0104250022B4
:0C04260020B7030204B63001030204B644
:100432007810E2FB08E2F908E2FA08E2CBF8C00021
:10044200781DE2FC08E2FD08E2FE08E2D000C39B50
:10045200FFEE9AFEED99FDEC98FC789E120214D202
:1004620001E47FC8FEFDFC789EE2FB08E2F908E2A7
:10047200FA08E2CBF8D312020340037F0222E47FA0
:100482000AFEFDFC789EE2FB08E2F908E2FA08E2C5
:10049200CBF8D31202034036E47F1EFEFDFC789EA9
:1004A200E2FB08E2F908E2FA08E2CBF81202035092
:0404B2001D7F012287
:1004B60020B717300114C201781DE2FC08E2FD08DE
:0C04C600E2FE08E2FF78101202147F0032
:0104D2002207
:10062300120379789DEFF21204267816E214603FE4
:10063300146064240260030206C2789DE2FEB401E2
:100643000B7817E2C394635003E204F2EFB4010B97
:100653007817E2D394014003E214F2EEB402057872
:10066300167401F2EF6402705678167402F222785F
:100673009DE2FEB4010B7818E2C394035003E20435
:10068300F2EFB4010B7818E2D394014003E214F2C1
:10069300EE6402702A8025789DE2B4010B7819E29A
:1006A300C394035003E204F2EFB4010B7819E2D3CD
:0F06B30094014003E214F2EFB40204E47816F26B
:0106C2002215
:03000B00020D24BF
:100D2400C0E0C0D075D000C0007815E22401F218EC
:100D3400E23400F208E2B4E80918E2B40304E4F28D
:090D440008F2D000D0D0D0E0325A
:03006300020A0A84
:100A0A00C0E0C0F0C083C082C0D075D000C000C0B2
:100A1A0004C005C006C007781DE2FC08E2FD08E232
:100A2A00FE08E22401FFE43EFEE43DFDE43CFC78DE
:100A3A001D120214D007D006D005D004D000D0D0A1
:090A4A00D082D083D0F0D0E0325C
:05076000784C120214A8
:10076500E4785AF208F2E4FFFEFDFC784CE2FB085F
:10077500E2F908E2FA08E2CBF8D3120203404EE4AC
:100785007B0AFAF9F8C000784CE2FC08E2FD08E2C1
:10079500FE08E2FFD000120171EB2430FF785A0801
:1007A500E2FD2401F218E23400F274502DF8EFF264
:1007B500784CE2FC08E2FD08E2FE08E2FFE47B0A71
:1007C500FAF9F8120171784C1202148099785A08D6
:1007D500E2FF24FFF218E2FE34FFF2EF4E600C0850
:1007E500E22450F8E2FF12000380E27BFF7A0079F1
:0407F5005D020BF79F
:100D6F00E4F5917592FF75B1C475B23B43BA8090AB
:100D7F00FE13E0543F44C0F053BA7F75C910E4F539
:020D8F00CA2276
:10000E00120EA7120D6F120DF0789F120220000132
:10001E00C2007D01E4FF120D917B647A007DFF7FAB
:10002E0001120CF7E5AF54FB4404F5AFD2AFE58EE9
:10003E0054EF4410F58EE47816F20804F208F20834
:0F004E00F21202661208EE12088512062380F2E3
:100E7D0043BC400000E5BC30E5FB53BCDFAFBD22F9
:100E0C0043BC400000E5BC30E5FB53BCDFAFBDEF9D
:0B0E1C00FEADBE7C00E42DFFEC3EFEAE
:010E270022A8
:0300600004510147
:010EA7002228
:100E2800E4FBFAF59D8FA6AF058F9FF59EEB1B702F
:060E3800011A144A70F7D4
:010E3E002291
:100DD300900060E493FC740193FDED1D70011C14FD
:0C0DE3004C70F7EF1F70011E144E70E4FE
:010DEF0022E1
:100E6B00900062E493FDDDFEEF1F70011E144E70C7
:010E7B00EF87
:010E7C002253
:0A06C30008E2FE08E2FF7BFF7A0068
:0F06CD00785CEEF208EFF208EAF208EBF2A9050A
:1006DC000812022000A8C000E9701B7860E2FC0838
:1006EC00E2FD08E2FE08E2FFE47B0CFAF9F81201E5
:1006FC007178601202147860E2FC08E2FD08E2FEF8
:10070C0008E2FFC006C007785CE2FE08E2FBAA061E
:10071C00E4F9F8D007D0061201717860120214784F
:10072C005EE2FE08E2FFE4FCFD08E2FB08E2F908E9
:10073C00E2FA08E2CBF8D31202034004E4FEFF22F3
:10074C0078600808E2FE08E2FFC3785FE29FFF18BA
:03075C00E29EFE1C
:01075F002277
:0C094E007864EFF208EAF208EBF2AE0564
:10095A007864E2FDC43333335480FFE58E547F4F0D
:10096A00F58EE58954FC4EF589EEB4020F1206C3E2
:10097A007867EEF208EFF2F58CF58A227865E2FEE6
:10098A0008E2FF7864E2FD74FFFBFA1206CD78678D
:10099A00EEF208EFF218E2FC08E2FDECF58CEDF558
:0109AA008AC2
:0109AB002229
:0C09AC007869EFF208EAF208EBF2AE0501
:1009B8007869E2FDC4333354C0FFE58E54BF4FF568
:1009C8008EEEC454F0FFE58954CF4FF589EEB4029A
:1009D8000F1206C3786CEEF208EFF2F58DF58B2254
:1009E800786AE2FE08E2FF7869E2FD1206C9786CCF
:1009F800EEF208EFF218E2FC08E2FDECF58DEDF5F9
:010A08008B62
:010A090022CA
:0C04D300EFF208EDF2AE02AF0318E2FBFE
:0A04DF00789FEEF208EFF208EDF24C
:1004E9000812022000A8C000EB701B78A2E2FC08E9
:1004F900E2FD08E2FE08E2FFE47B0CFAF9F81201DA
:100509007178A212021478A2E2FC08E2FD08E2FE68
:1005190008E2FFC004C005C006C00778A1E22401B3
:10052900FFE433FE789FE2FC08E2FD12007FAB078F
:10053900AA06E4F9F8D007D006D005D00412017153
:1005490078A2120214E47FFF7EFFFDFC78A2E2FB91
:1005590008E2F908E2FA08E2CBF8D31202034004F0
:10056900E4FEFF2278A20808E2FE08E2FFC374FF56
:060579009FFF74FF9EFECF
:01057F002259
:020CF700789DE6
:100CF9001204D3AD07AC06789DE225E025E0FFE5B7
:100D09008E54FB4FF58E43BA8008E290FEA2F05351
:0A0D1900BA7FECF5D6AF05EFF5D771
:010D230022AD
:020B4D00786EC0
:100B4F001204D3AD07AC06786EE225E0FFE5D15471
:100B5F00FD4FF5D143BA8008E290FEA3F053BA7F60
:100B6F00ECF5D4AF05EFF5D57872E2C43354E0FF5E
:070B7F00E5AF54DF4FF5AFB5
:010B8600224C
:020AD500787334
:100AD7001204D3AD07AC067873E2C43354E0FFE5E4
:100AE700D154DF4FF5D143BA8008E290FEA4F0530A
:100AF700BA7FECF5D2AF05EFF5D37877E2C433339D
:0A0B070054C0FFE5AF54BF4FF5AF37
:010B110022C1
:10058000E2FC08E2FD08E2FE08E2FF78A81202148D
:080590007F007EC07DA87C0005
:0505980078A31202141B
:10059D00E47F04FEFDFC78A8E2FB08E2F908E2FA2C
:1005AD0008E2CBF81200E6C004A905AA06AB07784D
:1005BD00A3E2FC08E2FD08E2FE08E2FFD000120112
:1005CD007178AC12021478A7E2701B78ACE2FC08CB
:1005DD00E2FD08E2FE08E2FFE47B0CFAF9F81201F5
:1005ED007178AC120214E47FFF7EFFFDFC78ACE263
:1005FD00FB08E2F908E2FA08E2CBF8D31202034055
:10060D0004E4FEFF2278AC0808E2FE08E2FFC3E432
:05061D009FFFE49EFEBA
:0106220022B5
:100A5300E58E54FE4FF58EEF701BEDC4333354C057
:100A6300FFE58E54BF4FF58E5389CFEAFF8F8DEB91
:100A7300F58BD28E22AF05EF25E025E0FFE58E54FE
:100A8300FB4FF58EEAFF8FD6EBF5D7E58E54EF4497
:040A930010F58E22AA
:070D9100789DEFF208EDF27E
:100D9800C29FD29E78A7F2789F120580AB07AA0659
:0A0DA800789DE2FF08E2FD020A5305
:070DB2007878EFF208EDF282
:100DB900D29FD29E78A7F2787A120580AB07AA064D
:0A0DC9007878E2FF08E2FD020A5309
:080003008F993099FDC299228A
:100E3F00AE07EEC4540F90000093FF120003EE5460
:060E4F000F93FF020003F7
:100BF700787EEBF208EAF208E9F2787EE2FB08E297
:100C0700FA08E2F9120066601A787EE2FB0808E249
:100C1700F92401F218E2FA3400F2120066FF12001A
:040C27000380D7224D
:080E98008F993099FDC29922E7
:040CC7007881EFF24F
:100CCB0078A7F27882120580AD07AC067881E22511
:100CDB00E025E0FFE58E54FB4FF58EECF5D6AF0526
:0B0CEB00EFF5D7E58E54EF4410F58EB6
:010CF60022DB
:0B0E8D008F9BE59A30E1FB539AFD2299
:100E5500AE07EEC4540F90000093FF120E8DEE54B2
:060E65000F93FF020E8D49
:100C2B007886EBF208EAF208E9F27886E2FB08E252
:100C3B00FA08E2F9120066601A7886E2FB0808E20D
:100C4B00F92401F218E2FA3400F2120066FF120ED8
:040C5B008D80D7228F
:040C5F007889EFF2AF
:100C630053ACBFE278A7F2788A120580AD07AC06D1
:100C73007889E225E025E0FFE58E54FB4FF58EEC05
:0F0C8300F5D6AF05EFF5D7E58E54EF4410F58E9B
:010C9200223F
:040BC000788EEFF24A
:100BC400E5AC54BF4440F5AC78A7EFF2788F12053A
:100BD40080AD07AC06788EE225E0FFE5D154FD4FE9
:100BE400F5D1ECF5D4AF05EFF5D5E5D154F74408CC
:020BF400F5D139
:010BF60022DC
:040C93007893EFF271
:100C97005384BFE278A7F27894120580AD07AC06BB
:100CA7007893E225E025E0FFE58E54FB4FF58EECC7
:0F0CB700F5D6AF05EFF5D7E58E54EF4410F58E67
:010CC600220B
:040B87007898EFF279
:100B8B00E58454BF4440F58478A7EFF278991205B9
:100B9B0080AD07AC067898E2C43354E0FFE5D1543E
:100BAB00DF4FF5D1ECF5D2AF05EFF5D3E5D1547F9F
:040BBB004480F5D1AC
:010BBF002213
:1008050002000EE493A3F8E493A34003F68001F2FB
:1008150008DFF48029E493A3F85407240CC8C333F4
:10082500C4540F4420C8834004F456800146F6DFC3
:10083500E4800B0102040810204080900B12E47E36
:10084500019360BCA3FF543F30E509541FFEE493B8
:10085500A360010ECF54C025E060A840B8E493A37F
:10086500FAE493A3F8E493A3C8C582C8CAC583CAAA
:10087500F0A3C8C582C8CAC583CADFE9DEE780BE62
:010B4C0000A8
:10006600BB010689828A83E0225002E722BBFE0298
:09007600E32289828A83E49322CB
:10007F00EF8DF0A4A8F0CF8CF0A428CE8DF0A42E95
:02008F00FE224F
:10009100BC000BBE0029EF8DF084FFADF022E4CC53
:1000A100F875F008EF2FFFEE33FEEC33FCEE9DEC1C
:1000B100984005FCEE9DFE0FD5F0E9E4CEFD22ED62
:1000C100F8F5F0EE8420D21CFEADF075F008EF2FAC
:1000D100FFED33FD4007985006D5F0F222C398FD9D
:0500E1000FD5F0EA223A
:1000E600E88FF0A4CC8BF0A42CFCE98EF0A42CFCB9
:1000F6008AF0EDA42CFCEA8EF0A4CDA8F08BF0A437
:100106002DCC3825F0FDE98FF0A42CCD35F0FCEB95
:100116008EF0A4FEA9F0EB8FF0A4CFC5F02ECD395A
:0F012600FEE43CFCEAA42DCE35F0FDE43CFC22C7
:1001350075F008758200EF2FFFEE33FECD33CDCC81
:1001450033CCC58233C5829BED9AEC99E582984004
:100155000CF582EE9BFEED9AFDEC99FC0FD5F0D6E1
:10016500E4CEFBE4CDFAE4CCF9A88222B800C1B90B
:100175000059BA002DEC8BF084CFCECDFCE5F0CB49
:10018500F97818EF2FFFEE33FEED33FDEC33FCEB82
:1001950033FB10D703994004EB99FB0FD8E5E4F93D
:1001A500FA227818EF2FFFEE33FEED33FDEC33FC2A
:1001B500C933C910D7059BE99A4007EC9BFCE99A1E
:1001C500F90FD8E0E4C9FAE4CCFB2275F010EF2F63
:1001D500FFEE33FEED33FDCC33CCC833C810D70763
:1001E5009BEC9AE899400AED9BFDEC9AFCE899F89E
:0E01F5000FD5F0DAE4CDFBE4CCFAE4C8F92231
:10020300EB9FF5F0EA9E42F0E99D42F0E89C45F051
:0102130022C8
:0C021400ECF208EDF208EEF208EFF22226
:10022000D083D082E493F208740193F208740293AD
:09023000F208740393F2740473E4
:10023900EC8EF0A4CCC5F0CCCDF8EFA4CEC5F02D52
:10024900FDE43CFCE8A42EC8C5F03DFDE43CFCEF10
:0D025900A4FFE5F028FEE43DFDE43CFC229E
:00000001FF
