:0300000002092AC8
:0C092A00787FE4F6D8FD75812002097189
:03106D000D0A0069
:100B4500A0273B3F065B4F666D7D077F6F40807733
:100B55007C395E79713D76061E753837545C736B4A
:100B6500506D781C1C2A766E5B008323010203847A
:100B75000000000000810400C180C181811800814E
:100B85003A0086190001000100018C2E00040005C1
:080B95000004000500010064EA
:100CC100EF1392B4EFC313139290EF1313543F1326
:100CD1009292EF131313541F139293EFC4540F13F3
:100CE1009294EFC4135407139295EFC41313540352
:0E0CF100139296EFC41313135401139297221B
:07106600D2B1D2B0D2B322D7
:100F1300AE0712106674232EF8E2FF120CC1EE1412
:100F2300600A14600A24027008C2B122C2B022C24D
:020F3300B322E7
:100B9E007800E2FC08E2FD08E2FE08E2FF7826E2B9
:100BAE00FB08E2F908E2FA08E2CBF8C3120203608E
:100BBE00297826E2FC08E2FD08E2FE08E2FF780052
:100BCE001202147804E2FF120F137804E2C39402A7
:0A0BDE005004E204F222E47804F26D
:010BE80022EA
:10026600781FE2FF7809E26F6007EFF2E408F20810
:10027600F27809E21470030203F814700302041BF7
:100286002402600302044A7805E2FB08E2F908E268
:10029600FA08E2CBF8C0007826E2FC08E2FD08E2A4
:1002A600FE08E2D000C39BFFEE9AFEED99FDEC98A6
:1002B600FCE47B907A01F9F8D312020340527820CD
:1002C600E2FF7E00780BE26F700218E27003020311
:1002D600AF784AE27823F27820E2FD75F00A8424AA
:1002E6003BF8E27824F2ED75F00A84743B25F0F8C9
:1002F600E27825F2780AEEF208EFF27826E2FC08B8
:10030600E2FD08E2FE08E2FF78051202140203AFDE
:10031600780AE2FE08E2FFE4FCFD782AE2FB08E246
:0E032600F908E2FA08E2CBF8C3120203607B8A
:1003340078A67402F2782A0808E2FF08E2780ACF65
:10034400804778A6E2C3648094804043780AE2FE42
:1003540008E2FFD39400EE9400400D7C007D0A1265
:100364000091743B2DF880027861E2FF78A6E2FEEA
:1003740014F274232EF8EFF2780AE2FE08E2FF7C0E
:10038400007D0A120091780AEEF208EFF280B37849
:1003940024E2FF7846E2FEEF4E7824F2782A080839
:0B03A400E2FF08E2780ACFF208EFF257
:1003AF007805E2FB08E2F908E2FA08E2CBF8C000B0
:1003BF007826E2FC08E2FD08E2FE08E2D000C39BCB
:1003CF00FFEE9AFEED99FDEC98FCE47B207A03F9A1
:1003DF00F8C312020350647826E2FC08E2FD08E23B
:1003EF00FE08E2FF78050202147821E2FF7E007812
:1003FF000BE26F700218E260427856E27823F278CF
:10040F0045E27824F27821E2243B80237822E2FF30
:10041F007E00780BE26F700218E2601F7859E27865
:10042F0023F27845E27824F27822E2C313243CF8D1
:0B043F00E27825F2780AEEF208EFF2F6
:01044A00228F
:100FB600E5BC54F0440AF5BCE5DE54F04401F5DE28
:0C0FC60053DEDFE5BC547F4480F5BC2204
:100A2000780CE2FB08E2F908E2FA08E2CBF8C00031
:100A30007826E2FC08E2FD08E2FE08E2D000C39B53
:100A4000FFEE9AFEED99FDEC98FCE47BC8FAF9F80C
:100A5000C312020350327826E2FC08E2FD08E2FEEF
:100A600008E2FF780C120214121043EF75F005A48F
:100A7000FFAEF07C007D7E120239E47BFFFAF9F8CC
:080A8000120171782A12021420
:010A8800224B
:0C05E30020B6030206733000030206730A
:1005EF007810E2FB08E2F908E2FA08E2CBF8C00063
:1005FF007826E2FC08E2FD08E2FE08E2D000C39B89
:10060F00FFEE9AFEED99FDEC98FC78A8120214D239
:10061F0000E47FC8FEFDFC78A8E2FB08E2F908E2DF
:10062F00FA08E2CBF8D312020340037F0222E47FE1
:10063F0014FEFDFC78A8E2FB08E2F908E2FA08E2F2
:10064F00CBF8D31202034036E47F3CFEFDFC78A8C2
:10065F00E2FB08E2F908E2FA08E2CBF812020350D3
:04066F001D7F0122C8
:1006730020B617300014C2007826E2FC08E2FD0819
:0C068300E2FE08E2FF78101202147F0073
:01068F002248
:0C06900020B703020720300103020720FE
:10069C007814E2FB08E2F908E2FA08E2CBF8C000B1
:1006AC007826E2FC08E2FD08E2FE08E2D000C39BDB
:1006BC00FFEE9AFEED99FDEC98FC78A8120214D28C
:1006CC0001E47FC8FEFDFC78A8E2FB08E2F908E231
:1006DC00FA08E2CBF8D312020340037F0222E47F34
:1006EC0014FEFDFC78A8E2FB08E2F908E2FA08E245
:1006FC00CBF8D31202034036E47F3CFEFDFC78A815
:10070C00E2FB08E2F908E2FA08E2CBF81202035025
:04071C001D7F01221A
:1007200020B717300114C2017826E2FC08E2FD0868
:0C073000E2FE08E2FF78141202147F00C1
:01073C00229A
:10052C001205E378A6EFF212069078A7EFF2781F87
:10053C00E214604B146072240260030205E278A698
:10054C00E2B4010312000E78A6E2FFB4010B78208E
:10055C00E2C394635003E204F278A7E2FEB4010B09
:10056C007820E2D394014003E214F2EFB402057850
:10057C001F7401F2EE6402705D781F7402F222782F
:10058C00A6E2FFB4010B7821E2C394035003E2040A
:10059C00F278A7E2B4010B7821E2D394014003E294
:1005AC0014F2EF6402702F802A78A6E2B4010C7862
:1005BC0022E2C394055004E22402F278A7E2FFB4CD
:1005CC00010C7822E2D394014004E224FEF2EFB451
:0605DC000204E4781FF2A6
:0105E20022F6
:03000B00020BE9FC
:100BE900C0E0C0D075D000C000C001C007783AE2AB
:100BF90025E0242FF97818E204FFF2D3E39F19E3E3
:100C09009400501CE4F27822E2FF783AE204F2C33D
:100C19009F4002C28C783AE22419F8E224FF9291AB
:0B0C2900D007D001D000D0D0D0E032C6
:03006300020C3458
:100C3400C0E0C0F0C083C082C0D075D000C000C086
:100C440004C005C006C0077826E2FC08E2FD08E2FD
:100C5400FE08E22401FFE43EFEE43DFDE43CFC78B2
:100C640026120214D007D006D005D004D000D0D06C
:090C7400D082D083D0F0D0E03230
:05044B007862120214AA
:10045000E47870F208F2FFFEFDFC7862E2FB08E24D
:10046000F908E2FA08E2CBF8C312020370307B0A03
:10047000FAF9F8C0007862E2FC08E2FD08E2FE0842
:10048000E2FFD000120171EB2430FF787008E2FD2A
:100490002401F218E23400F274662DF8EFF2E4FF62
:1004A000FEFDFC7862E2FB08E2F908E2FA08E2CB22
:1004B000F8D3120203404EE47B0AFAF9F8C0007840
:1004C00062E2FC08E2FD08E2FE08E2FFD000120151
:1004D00071EB2430FF787008E2FD2401F218E23459
:1004E00000F274662DF8EFF27862E2FC08E2FD0893
:1004F000E2FE08E2FFE47B0AFAF9F8120171786281
:100500001202148099787008E2FF24FFF218E2FECC
:1005100034FFF2EF4E600C08E22466F8E2FF1200AE
:0C0520000380E27BFF7A10796D020DE68B
:10000E00E4FD7822E214FFEDC39F501CED25E024A1
:10001E002EF8E4F2087404F2ED25E02430F8E4F250
:10002E00087405F20D0D80DA7821E2FF18E28FF0E8
:10003E00A4FFED25E0242EF8E5F0F208EFF2ED2511
:10004E00E02430F8E4F2087464F2E4783AF2D28CE8
:02005E00C2914D
:01006000227D
:100F3500E4F5917592FF75B1C475B23B43BA8090E3
:100F4500FE13E0543F44C0F053BA7F75C910E4F571
:020F5500CA22AE
:1009B600120061120F35120FB678A812022000013C
:1009C600C2007D01E4FF120F577BE87A03E4FD7F46
:1009D60001120A89D2A953B8FDE5B754FD4402F5C0
:1009E600B77BC87A007DFF7F01120EE6E5AF54FBA8
:1009F6004404F5AFD2AFE58E54EF4410F58EE4789B
:100A06001FF2087405F2087401F208F21202661267
:0A0A16000B9E120A2012052C80F23C
:1010430043BC400000E5BC30E5FB53BCDFAFBD2231
:100FD20043BC400000E5BC30E5FB53BCDFAFBDEFD6
:0B0FE200FEADBE7C00E42DFFEC3EFEE7
:010FED0022E1
:0310700004510127
:01006100227C
:100FEE00E4FBFAF59D8FA6AF058F9FF59EEB1B7068
:060FFE00011A144A70F70D
:0110040022C9
:100F9900901070E493FC740193FDED1D70011C1415
:0C0FA9004C70F7EF1F70011E144E70E436
:010FB5002219
:10103100901072E493FDDDFEEF1F70011E144E70DF
:01104100EFBF
:01104200228B
:0A088D0008E2FE08E2FF7BFF7A009C
:0F08970078ABEEF208EFF208EAF208EBF2A905EF
:1008A6000812022000A8C000E9701B78AFE2FC081D
:1008B600E2FD08E2FE08E2FFE47B0CFAF9F8120119
:1008C6007178AF12021478AFE2FC08E2FD08E2FE8E
:1008D60008E2FFC006C00778ABE2FE08E2FBAA0604
:1008E600E4F9F8D007D00612017178AF1202147835
:1008F600ADE2FE08E2FFE4FCFD08E2FB08E2F908CF
:10090600E2FA08E2CBF8D31202034004E4FEFF2227
:1009160078AF0808E2FE08E2FFC378AEE29FFF1850
:03092600E29EFE50
:0109290022AB
:0C0A890078A6EFF208EAF208EBF2AE05E6
:100A950078A6E2FDC43333335480FFE58E547F4F8F
:100AA500F58EE58954FC4EF589EEB4020F12088DDA
:100AB50078A9EEF208EFF2F58CF58A2278A7E2FE26
:100AC50008E2FF78A6E2FD74FFFBFA12089778A901
:100AD500EEF208EFF218E2FC08E2FDECF58CEDF51C
:010AE5008A86
:010AE60022ED
:0C0AE7007872EFF208EAF208EBF2AE05BC
:100AF3007872E2FDC4333354C0FFE58E54BF4FF523
:100B03008EEEC454F0FFE58954CF4FF589EEB4025D
:100B13000F12088D7875EEF208EFF2F58DF58B2242
:100B23007873E2FE08E2FF7872E2FD1208937875AB
:100B3300EEF208EFF218E2FC08E2FDECF58DEDF5BC
:010B43008B26
:010B4400228E
:0C073D00EFF208EDF2AE02AF0318E2FB91
:0A07490078A8EEF208EFF208EDF2D6
:100753000812022000A8C000EB701B78ABE2FC0873
:10076300E2FD08E2FE08E2FFE47B0CFAF9F812016D
:100773007178AB12021478ABE2FC08E2FD08E2FEEA
:1007830008E2FFC004C005C006C00778AAE224013E
:10079300FFE433FE78A8E2FC08E2FD12007FAB071A
:1007A300AA06E4F9F8D007D006D005D004120171E7
:1007B30078AB120214E47FFF7EFFFDFC78ABE2FB13
:1007C30008E2F908E2FA08E2CBF8D3120203400484
:1007D300E4FEFF2278AB0808E2FE08E2FFC374FFE1
:0607E3009FFF74FF9EFE63
:0107E90022ED
:020EE60078A6EC
:100EE80012073DAD07AC0678A6E225E025E0FFE550
:100EF8008E54FB4FF58E43BA8008E290FEA2F05361
:0A0F0800BA7FECF5D6AF05EFF5D780
:010F120022BC
:020D3C007877C6
:100D3E0012073DAD07AC067877E225E0FFE5D1540A
:100D4E00FD4FF5D143BA8008E290FEA3F053BA7F6F
:100D5E00ECF5D4AF05EFF5D5787BE2C43354E0FF64
:070D6E00E5AF54DF4FF5AFC4
:010D7500225B
:020CFF00787CFF
:100D010012073DAD07AC06787CE2C43354E0FFE541
:100D1100D154DF4FF5D143BA8008E290FEA4F053DD
:100D2100BA7FECF5D2AF05EFF5D37880E2C4333367
:0A0D310054C0FFE5AF54BF4FF5AF0B
:010D3B002295
:1007EA00E2FC08E2FD08E2FE08E2FF78B112021418
:0807FA007F007EC07DA87C0099
:0508020078AC120214A5
:10080700E47F04FEFDFC78B1E2FB08E2F908E2FAB6
:1008170008E2CBF81200E6C004A905AA06AB0778E0
:10082700ACE2FC08E2FD08E2FE08E2FFD00012019C
:100837007178B512021478B0E2701B78B5E2FC0843
:10084700E2FD08E2FE08E2FFE47B0CFAF9F8120188
:100857007178B5120214E47FFF7EFFFDFC78B5E2E4
:10086700FB08E2F908E2FA08E2CBF8D312020340E8
:1008770004E4FEFF2278B50808E2FE08E2FFC3E4BD
:050887009FFFE49EFE4E
:01088C002249
:100C7D00E58E54FE4FF58EEF701BEDC4333354C02B
:100C8D00FFE58E54BF4FF58E5389CFEAFF8F8DEB65
:100C9D00F58BD28E22AF05EF25E025E0FFE58E54D2
:100CAD00FB4FF58EEAFF8FD6EBF5D7E58E54EF446B
:040CBD0010F58E227E
:070F570078A6EFF208EDF2AD
:100F5E00C29FD29E78B0F278A81207EAAB07AA0613
:0A0F6E0078A6E2FF08E2FD020C7D08
:070F78007881EFF208EDF2B1
:100F7F00D29FD29E78B0F278831207EAAB07AA0607
:0A0F8F007881E2FF08E2FD020C7D0C
:080003008F993099FDC299228A
:10100500AE07EEC4540F90000093FF120003EE5498
:061015000F93FF0200032F
:100DE6007887EBF208EAF208E9F27887E2FB08E294
:100DF600FA08E2F9120066601A7887E2FB0808E250
:100E0600F92401F218E2FA3400F2120066FF120029
:040E16000380D7225C
:08105E008F993099FDC299221F
:040EB600788AEFF255
:100EBA0078B0F2788B1207EAAD07AC06788AE22599
:100ECA00E025E0FFE58E54FB4FF58EECF5D6AF0535
:0B0EDA00EFF5D7E58E54EF4410F58EC5
:010EE50022EA
:0B1053008F9BE59A30E1FB539AFD22D1
:10101B00AE07EEC4540F90000093FF121053EE5422
:06102B000F93FF021053B9
:100E1A00788FEBF208EAF208E9F2788FE2FB08E24F
:100E2A00FA08E2F9120066601A788FE2FB0808E213
:100E3A00F92401F218E2FA3400F2120066FF1210E5
:040E4A005380D722D8
:040E4E007892EFF2B5
:100E520053ACBFE278B0F278931207EAAD07AC0662
:100E62007892E225E025E0FFE58E54FB4FF58EEC0B
:0F0E7200F5D6AF05EFF5D7E58E54EF4410F58EAA
:010E8100224E
:040DAF007897EFF250
:100DB300E5AC54BF4440F5AC78B0EFF27898120735
:100DC300EAAD07AC067897E225E0FFE5D154FD4F85
:100DD300F5D1ECF5D4AF05EFF5D5E5D154F74408DB
:020DE300F5D148
:010DE50022EB
:040E8200789CEFF277
:100E86005384BFE278B0F2789D1207EAAD07AC064C
:100E9600789CE225E025E0FFE58E54FB4FF58EECCD
:0F0EA600F5D6AF05EFF5D7E58E54EF4410F58E76
:010EB500221A
:040D760078A1EFF27F
:100D7A00E58454BF4440F58478B0EFF278A21207B4
:100D8A00EAAD07AC0678A1E2C43354E0FFE5D154DA
:100D9A00DF4FF5D1ECF5D2AF05EFF5D3E5D1547FAE
:040DAA004480F5D1BB
:010DAE002222
:100936000209B6E493A3F8E493A34003F68001F218
:1009460008DFF48029E493A3F85407240CC8C333C2
:10095600C4540F4420C8834004F456800146F6DF91
:10096600E4800B0102040810204080900B45E47ED1
:10097600019360BCA3FF543F30E509541FFEE49386
:10098600A360010ECF54C025E060A840B8E493A34D
:10099600FAE493A3F8E493A3C8C582C8CAC583CA78
:1009A600F0A3C8C582C8CAC583CADFE9DEE780BE30
:010B9D000057
:10006600BB010689828A83E0225002E722BBFE0298
:09007600E32289828A83E49322CB
:10007F00EF8DF0A4A8F0CF8CF0A428CE8DF0A42E95
:02008F00FE224F
:10009100BC000BBE0029EF8DF084FFADF022E4CC53
:1000A100F875F008EF2FFFEE33FEEC33FCEE9DEC1C
:1000B100984005FCEE9DFE0FD5F0E9E4CEFD22ED62
:1000C100F8F5F0EE8420D21CFEADF075F008EF2FAC
:1000D100FFED33FD4007985006D5F0F222C398FD9D
:0500E1000FD5F0EA223A
:1000E600E88FF0A4CC8BF0A42CFCE98EF0A42CFCB9
:1000F6008AF0EDA42CFCEA8EF0A4CDA8F08BF0A437
:100106002DCC3825F0FDE98FF0A42CCD35F0FCEB95
:100116008EF0A4FEA9F0EB8FF0A4CFC5F02ECD395A
:0F012600FEE43CFCEAA42DCE35F0FDE43CFC22C7
:1001350075F008758200EF2FFFEE33FECD33CDCC81
:1001450033CCC58233C5829BED9AEC99E582984004
:100155000CF582EE9BFEED9AFDEC99FC0FD5F0D6E1
:10016500E4CEFBE4CDFAE4CCF9A88222B800C1B90B
:100175000059BA002DEC8BF084CFCECDFCE5F0CB49
:10018500F97818EF2FFFEE33FEED33FDEC33FCEB82
:1001950033FB10D703994004EB99FB0FD8E5E4F93D
:1001A500FA227818EF2FFFEE33FEED33FDEC33FC2A
:1001B500C933C910D7059BE99A4007EC9BFCE99A1E
:1001C500F90FD8E0E4C9FAE4CCFB2275F010EF2F63
:1001D500FFEE33FEED33FDCC33CCC833C810D70763
:1001E5009BEC9AE899400AED9BFDEC9AFCE899F89E
:0E01F5000FD5F0DAE4CDFBE4CCFAE4C8F92231
:10020300EB9FF5F0EA9E42F0E99D42F0E89C45F051
:0102130022C8
:0C021400ECF208EDF208EEF208EFF22226
:10022000D083D082E493F208740193F208740293AD
:09023000F208740393F2740473E4
:10023900EC8EF0A4CCC5F0CCCDF8EFA4CEC5F02D52
:10024900FDE43CFCE8A42EC8C5F03DFDE43CFCEF10
:0D025900A4FFE5F028FEE43DFDE43CFC229E
:00000001FF
