:03000000020A9C55
:0C0A9C00787FE4F6D8FD758120020AE3A3
:10000E00A027423F065B4F666D7D077F6F4080776E
:10001E007C395E79713D76061E753837545C736B8C
:10002E00506D781C1C2A766E5B00832801020384B7
:10003E000000000000810400C180C181811600868D
:0F004E001F000100010001816900813000C10223
:100BF700E4FD78B174FEF2087400F2087425F2E59A
:100C0700C7547F4480F5C7C2AFED2400E43404F530
:100C1700C3EDF5C4E5C554FC4401F5C575C65A7561
:100C2700C6A5000053C5FCD2AFE5C730E40553C7DE
:100C3700EF801478B1E2FB08E2FA08E2F98D8275D9
:0F0C47008300E5C21203DB0DEDB403BB53C77F7F
:010C5600227B
:100CB600E4FD78B374FEF2087400F2087425F2E5D8
:100CC600C7547F4480F5C778B3E2FB08E2FA08E22E
:100CD600F98D827583001203AEF5C2C2AFED240012
:100CE600E43404F5C3EDF5C4E5C554FC4402F5C58A
:100CF60075C65A75C6A5000053C5FCD2AFE5C73008
:0D0D0600E40353C7EF0DEDB403BD53C77FE9
:010D130022BD
:100F5000EF1392B4EFC313139290EF1313543F1394
:100F60009292EF131313541F139293EFC4540F1361
:100F70009294EFC4135407139295EFC413135403C0
:0E0F8000139296EFC413131354011392972289
:07133100D2B1D2B0D2B32209
:1011DE00AE0712133174282EF8E2FF120F50EE14E0
:1011EE00600A14600A24027008C2B122C2B022C280
:0211FE00B3221A
:100E2D007800E2FC08E2FD08E2FE08E2FF782CE221
:100E3D00FB08E2F908E2FA08E2CBF8C3120581607B
:100E4D0029782CE2FC08E2FD08E2FE08E2FF7800BA
:100E5D001205927804E2FF1211DE7804E2C39402C7
:0A0E6D005004E204F222E47804F2DB
:010E77002258
:1000660078B17402F27835E2B409004003020394D1
:1000760090007DF82828730201B50200980200E678
:1000860002013302028F0202B602039402039402B3
:1000960003487855E27828F27856E27829F27868AB
:1000A600E2782AF27806E2FB08E2F908E2FA08E2C8
:1000B600CBF8C000782CE2FC08E2FD08E2FE08E27C
:1000C600D000C39BFFEE9AFEED99FDEC98FCE47B15
:1000D600C8FAF9F8C312058140030203940201AE7F
:1000E6007859E27828F2785CE27829F27868E27842
:1000F6002AF27806E2FB08E2F908E2FA08E2CBF80F
:10010600C000782CE2FC08E2FD08E2FE08E2D0001E
:10011600C39BFFEE9AFEED99FDEC98FCE47BC8FAD2
:10012600F9F8C31205814003020394807B7851E2FB
:100136007828F27825E2FF75F00A842442F8E278FE
:1001460029F2EF75F00A84744225F0F8E2782AF273
:100156007825E2FF7805E26F6014EFF2782CE2FC76
:1001660008E2FD08E2FE08E2FF780612059278062C
:10017600E2FB08E2F908E2FA08E2CBF8C000782CC4
:10018600E2FC08E2FD08E2FE08E2D000C39BFFEEB7
:100196009AFEED99FDEC98FCE47B2C7A01F9F8C304
:1001A6001205814003020394E47835F2020336789F
:1001B600310808E2FE08E2FBAA0678B1E2C36480D1
:1001C6009480403BD3EB9400EA940040117C007D80
:1001D6000AAF03AE0212040F74422DF8800278684B
:1001E600E2FF78B1E2FE14F274282EF8EFF27C00FA
:1001F6007D0AAF03AE0212040FAA06AB0780BB78D6
:1002060029E2FF784DE2FEEF4E7829F27806E2FB0E
:1002160008E2F908E2FA08E2CBF8C000782CE2FC22
:1002260008E2FD08E2FE08E2D000C39BFFEE9AFE5C
:10023600ED99FDEC98FCE47B2C7A01F9F8C31205E4
:10024600814003020394E47F547E01FDFC7831E291
:10025600FB08E2F908E2FA08E2CBF8120581501A27
:10026600E47FC8FEFDFC7831E2FB08E2F908E2FA19
:1002760008E2CBF8C3120581500778357404F28082
:100286000578357403F2020336C2B57868E2FF7862
:1002960028F208EFF208EFF2782CE2FC08E2FD08FB
:1002A600E2FE08E2FF780612059278357405F2221E
:1002B6007806E2FB08E2F908E2FA08E2CBF8C000A9
:1002C600782CE2FC08E2FD08E2FE08E2D000C39BBF
:1002D600FFEE9AFEED99FDEC98FCE47B0AFAF9F83C
:1002E600D31205814003020394D2B5E47F547E0104
:1002F600FDFC7831E2FB08E2F908E2FA08E2CBF805
:10030600120581400778357401F28024E47FC8FE27
:10031600FDFC7831E2FB08E2F908E2FA08E2CBF8E4
:10032600C3120581783550057402F280037407F212
:10033600782CE2FC08E2FD08E2FE08E2FF780602FD
:1003460005927806E2FB08E2F908E2FA08E2CBF841
:10035600C000782CE2FC08E2FD08E2FE08E2D000CC
:10036600C39BFFEE9AFEED99FDEC98FCE47B64FAE4
:10037600F9F8D31205815016782CE2FC08E2FD0844
:0E038600E2FE08E2FF7806120592E47835F2F6
:010394002246
:100FCB00782BE214600A14601A2402702E02006659
:100FDB00785DE27828F2784CE27829F27826E224E0
:100FEB004280137860E27828F2784CE27829F27824
:0C0FFB0027E2C3132443F8E2782AF22214
:10128100E5BC54F0440AF5BCE5DE54F04401F5DE5A
:0C12910053DEDFE5BC547F4480F5BC2236
:100B2800780AE2FB08E2F908E2FA08E2CBF8C0002A
:100B3800782CE2FC08E2FD08E2FE08E2D000C39B44
:100B4800FFEE9AFEED99FDEC98FCE47BC8FAF9F803
:100B5800C31205815032782CE2FC08E2FD08E2FE5F
:100B680008E2FF780A12059212130EEF75F005A439
:100B7800FFAEF07C007D7F1205B7E47BFFFAF9F841
:080B88001204EF78311205920E
:010B90002242
:0C07550020B6030207E53000030207E5B0
:10076100780EE2FB08E2F908E2FA08E2CBF8C000F1
:10077100782CE2FC08E2FD08E2FE08E2D000C39B0F
:10078100FFEE9AFEED99FDEC98FC78B3120592D23A
:1007910000E47FC8FEFDFC78B3E2FB08E2F908E261
:1007A100FA08E2CBF8D312058140037F0222E47FED
:1007B10014FEFDFC78B3E2FB08E2F908E2FA08E274
:1007C100CBF8D31205814036E47F3CFEFDFC78B3C3
:1007D100E2FB08E2F908E2FA08E2CBF812058150DF
:0407E1001D7F012255
:1007E50020B617300014C200782CE2FC08E2FD08A0
:0C07F500E2FE08E2FF780E1205927F0081
:0108010022D4
:0C08020020B703020892300103020892A4
:10080E007812E2FB08E2F908E2FA08E2CBF8C0003F
:10081E00782CE2FC08E2FD08E2FE08E2D000C39B61
:10082E00FFEE9AFEED99FDEC98FC78B3120592D28C
:10083E0001E47FC8FEFDFC78B3E2FB08E2F908E2B2
:10084E00FA08E2CBF8D312058140037F0222E47F3F
:10085E0014FEFDFC78B3E2FB08E2F908E2FA08E2C6
:10086E00CBF8D31205814036E47F3CFEFDFC78B315
:10087E00E2FB08E2F908E2FA08E2CBF81205815031
:04088E001D7F0122A7
:1008920020B717300114C201782CE2FC08E2FD08EF
:0C08A200E2FE08E2FF78121205927F00CF
:0108AE002227
:1005E40012075578B1EFF212080278B2EFF2782BC5
:1005F400E21470030206C41470030206FF240260AE
:100604000302075478B1E2B4012978167401F27830
:100614002CE2FC08E2FD08E2FE08E2FF781712056E
:10062400927825E2C394635005E204F280057825AC
:100634007401F278B2E2B4012978167401F2782CCC
:10064400E2FC08E2FD08E2FE08E2FF7817120592D8
:100654007825E2D394014005E214F28005782574EC
:1006640063F27816E2B4013D08E2FB08E2F908E21D
:10067400FA08E2CBF8C000782CE2FC08E2FD08E2BC
:10068400FE08E2D000C39BFFEE9AFEED99FDEC98C4
:10069400FCE47BD07A07F9F8C31205815007E478AB
:1006A40016F2120CB678B1E2B40205782B7401F29A
:1006B40078B2E264026003020754782B7402F222D7
:1006C40078B1E2FFB401127826E2C394035005E244
:1006D40004F2800578267401F278B2E2B40112784B
:1006E40026E2D394014005E214F2800578267403CF
:1006F400F2EFB40204E4782BF2803E78B1E2B40164
:10070400137827E2C394055006E22402F2800578A8
:10071400277401F278B2E2FFB401137827E2D3948C
:10072400014006E224FEF2800578277405F2EFB456
:100734000207120CB6E4782BF278167401F2782CC6
:10074400E2FC08E2FD08E2FE08E2FF7817120592D7
:010754002282
:03000B00020E786A
:100E7800C0E0C0D075D000C000C001C0077830E223
:100E880025E02437F97869E204FFF2D3E39F19E3F8
:100E98009400501CE4F27827E2FF7830E204F2C3B1
:100EA8009F4002C28C7830E2241FF8E224FF92911E
:0B0EB800D007D001D000D0D0D0E03235
:03006300020EC3C7
:100EC300C0E0C0F0C083C082C0D075D000C000C0F5
:100ED30004C005C006C007782CE2FC08E2FD08E266
:100EE300FE08E22401FFE43EFEE43DFDE43CFC7821
:100EF3002C120592D007D006D005D004D000D0D054
:090F0300D082D083D0F0D0E0329E
:100DD0007835E2640770557408F2E4FD7827E21470
:100DE000FFEDC39F501CED25E02436F8E4F20874B3
:100DF00004F2ED25E02438F8E4F2087405F20D0D54
:100E000080DA7826E2FF18E28FF0A4FFED25E024D7
:100E100036F8E5F0F208EFF2ED25E02438F8E4F2D8
:0C0E2000087464F2E47830F2D28CC291C5
:010E2C0022A3
:100B91007835E2600764036003D2022230CC422040
:100BA1000253781BE2FB08E2F908E2FA08E2CBF80B
:100BB100C000782CE2FC08E2FD08E2FE08E2D00069
:100BC100C39BFFEE9AFEED99FDEC98FCE47B2C7A39
:100BD10001F9F8C3120581501CD20278357404F270
:100BE10022C202782CE2FC08E2FD08E2FE08E2FFE4
:050BF100781B120592C3
:010BF60022DC
:10120000E4F5917592FF75B1C475B23B43BA809015
:10121000FE13E0543F44C0F053BA7F75C91075CA3D
:0212200010229A
:100C570012006175F50B120BF71212001212817B4D
:100C6700E87A03E4FD7F01120D14D2A953B8FDE51C
:100C7700B754FD4402F5B77BC87A007DFF7F0112A8
:100C870011B1E5AF54FB4404F5AFD2AFE58E54EF95
:100C97004410F58EE47835F2782BF2120B91120D91
:0F0CA700D0120FCB120E2D120B281205E480EC89
:10130E0043BC400000E5BC30E5FB53BCDFAFBD2263
:10129D0043BC400000E5BC30E5FB53BCDFAFBDEF08
:0B12AD00FEADBE7C00E42DFFEC3EFE19
:0112B8002213
:03005E0004510149
:01006100227C
:1012B900E4FBFAF59D8FA6AF058F9FF59EEB1B709A
:0612C900011A144A70F73F
:0112CF0022FC
:1012640090005EE493FC740193FDED1D70011C1469
:0C1274004C70F7EF1F70011E144E70E468
:01128000224B
:1012FC00900060E493FDDDFEEF1F70011E144E7034
:01130C00EFF1
:01130D0022BD
:0A09FF0008E2FE08E2FF7BFF7A0029
:0F0A090078B6EEF208EFF208EAF208EBF2A90570
:100A18000812059E00A8C000E9701B78BAE2FC081D
:100A2800E2FD08E2FE08E2FFE47B0CFAF9F81204A2
:100A3800EF78BA12059278BAE2FC08E2FD08E2FE05
:100A480008E2FFC006C00778B6E2FE08E2FBAA0685
:100A5800E4F9F8D007D0061204EF78BA12059278B4
:100A6800B8E2FE08E2FFE4FCFD08E2FB08E2F90850
:100A7800E2FA08E2CBF8D31205814004E4FEFF2233
:100A880078BA0808E2FE08E2FFC378B9E29FFF18C7
:030A9800E29EFEDD
:010A9B002238
:0C0D140078B1EFF208EAF208EBF2AE054D
:100D200078B1E2FDC43333335480FFE58E547F4FF6
:100D3000F58EE58954FC4EF589EEB4020F1209FFD9
:100D400078B4EEF208EFF2F58CF58A2278B2E2FE82
:100D500008E2FF78B1E2FD74FFFBFA120A0978B4E9
:100D6000EEF208EFF218E2FC08E2FDECF58CEDF58E
:010D70008AF8
:010D7100225F
:0C0D7200786AEFF208EAF208EBF2AE0536
:100D7E00786AE2FDC4333354C0FFE58E54BF4FF59D
:100D8E008EEEC454F0FFE58954CF4FF589EEB402D0
:100D9E000F1209FF786DEEF208EFF2F58DF58B224A
:100DAE00786BE2FE08E2FF786AE2FD120A05786DC2
:100DBE00EEF208EFF218E2FC08E2FDECF58DEDF52F
:010DCE008B99
:010DCF002201
:0C08AF00EFF208EDF2AE02AF0318E2FB1E
:0A08BB0078B3EEF208EFF208EDF258
:1008C5000812059E00A8C000EB701B78B6E2FC0874
:1008D500E2FD08E2FE08E2FFE47B0CFAF9F81204F7
:1008E500EF78B612059278B6E2FC08E2FD08E2FE62
:1008F50008E2FFC004C005C006C00778B5E22401C0
:10090500FFE433FE78B3E2FC08E2FD1203FDAB071A
:10091500AA06E4F9F8D007D006D005D0041204EFF2
:1009250078B6120592E47FFF7EFFFDFC78B6E2FB08
:1009350008E2F908E2FA08E2CBF8D312058140048F
:10094500E4FEFF2278B60808E2FE08E2FFC374FF62
:060955009FFF74FF9EFEEF
:01095B002279
:0211B10078B113
:1011B3001208AFAD07AC0678B1E225E025E0FFE504
:1011C3008E54FB4FF58E43BA8008E290FEA2F05393
:0A11D300BA7FECF5D6AF05EFF5D7B3
:0111DD0022EF
:02100700786F00
:101009001208AFAD07AC06786FE225E0FFE5D154D1
:10101900FD4FF5D143BA8008E290FEA3F053BA7FA1
:10102900ECF5D4AF05EFF5D57873E2C43354E0FF9E
:07103900E5AF54DF4FF5AFF6
:01104000228D
:020F8E00787475
:100F90001208AFAD07AC067874E2C43354E0FFE545
:100FA000D154DF4FF5D143BA8008E290FEA4F0534C
:100FB000BA7FECF5D2AF05EFF5D37878E2C43333DE
:0A0FC00054C0FFE5AF54BF4FF5AF7A
:010FCA002204
:10095C00E2FC08E2FD08E2FE08E2FF787E12059256
:08096C007F007EC07DA87C0025
:050974007879120592E4
:10097900E47F04FEFDFC787EE2FB08E2F908E2FA76
:1009890008E2CBF8120464C004A905AA06AB0778EB
:1009990079E2FC08E2FD08E2FE08E2FFD000120459
:1009A900EF7882120592787DE2701B7882E2FC086A
:1009B900E2FD08E2FE08E2FFE47B0CFAF9F8120412
:1009C900EF7882120592E47FFF7EFFFDFC7882E2D8
:1009D900FB08E2F908E2FA08E2CBF8D312058140F4
:1009E90004E4FEFF2278820808E2FE08E2FFC3E47D
:0509F9009FFFE49EFEDB
:0109FE0022D6
:100F0C00E58E54FE4FF58EEF701BEDC4333354C099
:100F1C00FFE58E54BF4FF58E5389CFEAFF8F8DEBD3
:100F2C00F58BD28E22AF05EF25E025E0FFE58E5440
:100F3C00FB4FF58EEAFF8FD6EBF5D7E58E54EF44D9
:040F4C0010F58E22EC
:071222007886EFF208EDF2FF
:10122900C29FD29E787DF2788812095CAB07AA0624
:0A1239007886E2FF08E2FD020F0CC8
:07124300788CEFF208EDF2D8
:10124A00D29FD29E787DF2788E12095CAB07AA06ED
:0A125A00788CE2FF08E2FD020F0CA1
:080003008F993099FDC299228A
:1012D000AE07EEC4540F90000093FF120003EE54CB
:0612E0000F93FF02000362
:1010B1007892EBF208EAF208E9F27892E2FB08E2B0
:1010C100FA08E2F9120395601A7892E2FB0808E245
:1010D100F92401F218E2FA3400F2120395FF12002A
:0410E1000380D7228F
:081329008F993099FDC2992251
:041181007895EFF27C
:10118500787DF2789612095CAD07AC067895E22574
:10119500E025E0FFE58E54FB4FF58EECF5D6AF0567
:0B11A500EFF5D7E58E54EF4410F58EF7
:0111B000221C
:0B131E008F9BE59A30E1FB539AFD2203
:1012E600AE07EEC4540F90000093FF12131EEE5487
:0612F6000F93FF02131E1E
:1010E500789AEBF208EAF208E9F2789AE2FB08E26C
:1010F500FA08E2F9120395601A789AE2FB0808E209
:10110500F92401F218E2FA3400F2120395FF1213E2
:041115001E80D7223F
:04111900789DEFF2DC
:10111D0053ACBFE2787DF2789E12095CAD07AC0648
:10112D00789DE225E025E0FFE58E54FB4FF58EEC32
:0F113D00F5D6AF05EFF5D7E58E54EF4410F58EDC
:01114C002280
:04107A0078A2EFF277
:10107E00E5AC54BF4440F5AC787DEFF278A312098D
:10108E005CAD07AC0678A2E225E0FFE5D154FD4F3A
:10109E00F5D1ECF5D4AF05EFF5D5E5D154F744080D
:0210AE00F5D17A
:0110B000221D
:04114D0078A7EFF29E
:101151005384BFE2787DF278A812095CAD07AC0632
:1011610078A7E225E025E0FFE58E54FB4FF58EECF4
:0F117100F5D6AF05EFF5D7E58E54EF4410F58EA8
:01118000224C
:0410410078ACEFF2A6
:10104500E58454BF4440F584787DEFF278AD12090C
:101055005CAD07AC0678ACE2C43354E0FFE5D1548F
:10106500DF4FF5D1ECF5D2AF05EFF5D3E5D1547FE0
:041075004480F5D1ED
:011079002254
:100AA800020C57E493A3F8E493A34003F68001F201
:100AB80008DFF48029E493A3F85407240CC8C3334F
:100AC800C4540F4420C8834004F456800146F6DF1E
:100AD800E4800B010204081020408090000EE47EA0
:100AE800019360BCA3FF543F30E509541FFEE49313
:100AF800A360010ECF54C025E060A840B8E493A3DA
:100B0800FAE493A3F8E493A3C8C582C8CAC583CA04
:100B1800F0A3C8C582C8CAC583CADFE9DEE780BEBC
:01005D0000A2
:10039500BB010689828A83E0225002E722BBFE0266
:0903A500E32289828A83E4932299
:1003AE00BB010CE58229F582E5833AF583E0225004
:1003BE0006E92582F8E622BBFE06E92582F8E2224E
:0D03CE00E58229F582E5833AF583E4932268
:1003DB00F8BB010DE58229F582E5833AF583E8F058
:1003EB00225006E92582C8F622BBFE05E92582C804
:0203FB00F222EC
:1003FD00EF8DF0A4A8F0CF8CF0A428CE8DF0A42E14
:02040D00FE22CD
:10040F00BC000BBE0029EF8DF084FFADF022E4CCD1
:10041F00F875F008EF2FFFEE33FEEC33FCEE9DEC9A
:10042F00984005FCEE9DFE0FD5F0E9E4CEFD22EDE0
:10043F00F8F5F0EE8420D21CFEADF075F008EF2F2A
:10044F00FFED33FD4007985006D5F0F222C398FD1B
:05045F000FD5F0EA22B8
:10046400E88FF0A4CC8BF0A42CFCE98EF0A42CFC37
:100474008AF0EDA42CFCEA8EF0A4CDA8F08BF0A4B5
:100484002DCC3825F0FDE98FF0A42CCD35F0FCEB14
:100494008EF0A4FEA9F0EB8FF0A4CFC5F02ECD39D9
:0F04A400FEE43CFCEAA42DCE35F0FDE43CFC2246
:1004B30075F008758200EF2FFFEE33FECD33CDCC00
:1004C30033CCC58233C5829BED9AEC99E582984083
:1004D3000CF582EE9BFEED9AFDEC99FC0FD5F0D660
:1004E300E4CEFBE4CDFAE4CCF9A88222B800C1B98A
:1004F3000059BA002DEC8BF084CFCECDFCE5F0CBC8
:10050300F97818EF2FFFEE33FEED33FDEC33FCEB00
:1005130033FB10D703994004EB99FB0FD8E5E4F9BB
:10052300FA227818EF2FFFEE33FEED33FDEC33FCA8
:10053300C933C910D7059BE99A4007EC9BFCE99A9C
:10054300F90FD8E0E4C9FAE4CCFB2275F010EF2FE1
:10055300FFEE33FEED33FDCC33CCC833C810D707E1
:100563009BEC9AE899400AED9BFDEC9AFCE899F81C
:0E0573000FD5F0DAE4CDFBE4CCFAE4C8F922AF
:10058100EB9FF5F0EA9E42F0E99D42F0E89C45F0D0
:010591002247
:0C059200ECF208EDF208EEF208EFF222A5
:10059E00D083D082E493F208740193F2087402932C
:0905AE00F208740393F274047363
:1005B700EC8EF0A4CCC5F0CCCDF8EFA4CEC5F02DD1
:1005C700FDE43CFCE8A42EC8C5F03DFDE43CFCEF8F
:0D05D700A4FFE5F028FEE43DFDE43CFC221D
:00000001FF
