:030000000208C62D
:0C08C600787FE4F6D8FD75812002090D52
:030F79000D0A005E
:100B6B00A027293F065B4F666D7D077F6F4080771F
:100B7B007C395E79713D76061E753837545C736B24
:100B8B00506D781C1C2A766E5B00831E0102038459
:100B9B000000000000810400C180C18182180000A8
:100BAC00EF1392B4EFC313139290EF1313543F133C
:100BBC009292EF131313541F139293EFC4540F1309
:100BCC009294EFC4135407139295EFC41313540368
:0E0BDC00139296EFC413131354011392972231
:070F7200D2B1D2B0D2B322CC
:100E2700AE07120F72741E2EF8E2FF120BACEE140F
:100E3700600A14600A24027008C2B122C2B022C23A
:020E4700B322D4
:10000E007800E2FC08E2FD08E2FE08E2FF7821E259
:10001E00FB08E2F908E2FA08E2CBF8C31202036029
:10002E00297821E2FC08E2FD08E2FE08E2FF7800F2
:10003E001202147804E2FF120E277804E2C394022F
:0A004E005004E204F222E47804F208
:010058002285
:10026600781AE2FF7809E26F6007EFF2E408F20815
:10027600F27809E21470030203F8147003020418FA
:10028600240260030204457805E2FB08E2F908E26D
:10029600FA08E2CBF8C0007821E2FC08E2FD08E2A9
:1002A600FE08E2D000C39BFFEE9AFEED99FDEC98A6
:1002B600FCE47B907A01F9F8D31202034052781BD2
:1002C600E2FF7E00780BE26F700218E27003020311
:1002D600AF7838E2781EF2781BE2FD75F00A8424C6
:1002E60029F8E2781FF2ED75F00A84742925F0F8F2
:1002F600E27820F2780AEEF208EFF27821E2FC08C2
:10030600E2FD08E2FE08E2FF78051202140203AFDE
:10031600780AE2FE08E2FFE4FCFD7825E2FB08E24B
:0E032600F908E2FA08E2CBF8C3120203607B8A
:1003340078947402F278250808E2FF08E2780ACF7C
:1003440080477894E2C3648094804043780AE2FE54
:1003540008E2FFD39400EE9400400D7C007D0A1265
:10036400009174292DF88002784FE2FF7894E2FE20
:1003740014F2741E2EF8EFF2780AE2FE08E2FF7C13
:10038400007D0A120091780AEEF208EFF280B37849
:100394001FE2FF7834E2FEEF4E781FF2782508085A
:0B03A400E2FF08E2780ACFF208EFF257
:1003AF007805E2FB08E2F908E2FA08E2CBF8C000B0
:1003BF007821E2FC08E2FD08E2FE08E2D000C39BD0
:1003CF00FFEE9AFEED99FDEC98FCE47B207A03F9A1
:1003DF00F8C3120203505F7821E2FC08E2FD08E245
:1003EF00FE08E2FF7805020214781CE2FF7E007817
:1003FF000BE26F700218E2603D7844E2781EF278EB
:10040F0033E2781FF2781C801E781DE2FF7E0078A1
:10041F000BE26F700218E2601D7847E2781EF278E7
:10042F0033E2781FF2781DE22429F8E27820F2787F
:06043F000AEEF208EFF2E4
:010445002294
:100ECA00E5BC54F0440AF5BCE5DE54F04401F5DE15
:0C0EDA0053DEDFE5BC547F4480F5BC22F1
:10095200780CE2FB08E2F908E2FA08E2CBF8C00000
:100962007821E2FC08E2FD08E2FE08E2D000C39B27
:10097200FFEE9AFEED99FDEC98FCE47BC8FAF9F8DB
:10098200C312020350327821E2FC08E2FD08E2FEC3
:1009920008E2FF780C120214120F57EF75F005A44B
:1009A200FFAEF07C007D7E120239E47BFFFAF9F89B
:0809B2001201717825120214F4
:0109BA00221A
:0C04460020B6030204D63000030204D6E6
:100452007810E2FB08E2F908E2FA08E2CBF8C00001
:100462007821E2FC08E2FD08E2FE08E2D000C39B2C
:10047200FFEE9AFEED99FDEC98FC7895120214D2EB
:1004820000E47FC8FEFDFC7895E2FB08E2F908E291
:10049200FA08E2CBF8D312020340037F0222E47F80
:1004A20014FEFDFC7895E2FB08E2F908E2FA08E2A4
:1004B200CBF8D31202034036E47F3CFEFDFC789574
:1004C200E2FB08E2F908E2FA08E2CBF81202035072
:0404D2001D7F012267
:1004D60020B617300014C2007821E2FC08E2FD08BD
:0C04E600E2FE08E2FF78101202147F0012
:0104F20022E7
:0C04F30020B703020583300103020583DB
:1004FF007814E2FB08E2F908E2FA08E2CBF8C00050
:10050F007821E2FC08E2FD08E2FE08E2D000C39B7E
:10051F00FFEE9AFEED99FDEC98FC7895120214D23D
:10052F0001E47FC8FEFDFC7895E2FB08E2F908E2E2
:10053F00FA08E2CBF8D312020340037F0222E47FD2
:10054F0014FEFDFC7895E2FB08E2F908E2FA08E2F6
:10055F00CBF8D31202034036E47F3CFEFDFC7895C6
:10056F00E2FB08E2F908E2FA08E2CBF812020350C4
:04057F001D7F0122B9
:1005830020B717300114C2017821E2FC08E2FD080C
:0C059300E2FE08E2FF78141202147F0060
:01059F002239
:1006F0001204467894EFF21204F3781AE214603F81
:100700001460642402600302078F7894E2FEB4014F
:100710000B781BE2C394635003E204F2EFB4010BC5
:10072000781BE2D394014003E214F2EEB4020578A0
:100730001A7401F2EF64027056781A7402F2227889
:1007400094E2FEB4010B781CE2C394035003E2046C
:10075000F2EFB4010B781CE2D394014003E214F2EF
:10076000EE6402702A80257894E2B4010B781DE2D1
:10077000C394035003E204F2EFB4010B781DE2D3FB
:0F07800094014003E214F2EFB40204E4781AF299
:01078F002247
:03000B00020DFEE5
:100DFE00C0E0C0D075D000C0007819E22401F2180E
:100E0E00E23400F208E2B4E80918E2B40304E4F2B2
:090E1E0008F2D000D0D0D0E0327F
:03006300020ADEB0
:100ADE00C0E0C0F0C083C082C0D075D000C000C0DE
:100AEE0004C005C006C0077821E2FC08E2FD08E25A
:100AFE00FE08E22401FFE43EFEE43DFDE43CFC780A
:100B0E0021120214D007D006D005D004D000D0D0C8
:090B1E00D082D083D0F0D0E03287
:05082D007850120214D6
:10083200E4785EF208F2E4FFFEFDFC7850E2FB0889
:10084200E2F908E2FA08E2CBF8D3120203404EE4DE
:100852007B0AFAF9F8C0007850E2FC08E2FD08E2EF
:10086200FE08E2FFD000120171EB2430FF785E082F
:10087200E2FD2401F218E23400F274542DF8EFF292
:100882007850E2FC08E2FD08E2FE08E2FFE47B0A9F
:10089200FAF9F812017178501202148099785E0800
:1008A200E2FF24FFF218E2FE34FFF2EF4E600C0882
:1008B200E22454F8E2FF12000380E27BFF7A0F7910
:0408C20079020CD1DA
:100E4900E4F5917592FF75B1C475B23B43BA8090D0
:100E5900FE13E0543F44C0F053BA7F75C910E4F55E
:020E6900CA229B
:1009BB00120061120E49120ECA7896120220000123
:1009CB00C2007D01E4FF120E6B7BE87A03E4FD7F2E
:1009DB0001120A22D2A953B8FDE5B754FD4402F522
:1009EB00B77BC87A007DFF7F01120DD1E5AF54FBB9
:1009FB004404F5AFD2AFE58E54EF4410F58EE47896
:100A0B001AF20804F208F208F212026612000E1231
:070A1B0009521206F080F2FF
:100F570043BC400000E5BC30E5FB53BCDFAFBD221E
:100EE60043BC400000E5BC30E5FB53BCDFAFBDEFC3
:0B0EF600FEADBE7C00E42DFFEC3EFED4
:010F010022CD
:030F7C000451011C
:01006100227C
:100F0200E4FBFAF59D8FA6AF058F9FF59EEB1B7054
:060F1200011A144A70F7F9
:010F180022B6
:100EAD00900F7CE493FC740193FDED1D70011C14F7
:0C0EBD004C70F7EF1F70011E144E70E423
:010EC9002206
:100F4500900F7EE493FDDDFEEF1F70011E144E70C1
:010F5500EFAC
:010F56002278
:0A07900008E2FE08E2FF7BFF7A009A
:0F079A007899EEF208EFF208EAF208EBF2A905FF
:1007A9000812022000A8C000E9701B789DE2FC082D
:1007B900E2FD08E2FE08E2FFE47B0CFAF9F8120117
:1007C90071789D120214789DE2FC08E2FD08E2FEB0
:1007D90008E2FFC006C0077899E2FE08E2FBAA0614
:1007E900E4F9F8D007D006120171789D1202147845
:1007F9009BE2FE08E2FFE4FCFD08E2FB08E2F908DF
:10080900E2FA08E2CBF8D31202034004E4FEFF2225
:10081900789D0808E2FE08E2FFC3789CE29FFF1872
:03082900E29EFE4E
:01082C0022A9
:0C0A22007894EFF208EAF208EBF2AE055F
:100A2E007894E2FDC43333335480FFE58E547F4F08
:100A3E00F58EE58954FC4EF589EEB4020F1207903F
:100A4E007897EEF208EFF2F58CF58A227895E2FEB1
:100A5E0008E2FF7894E2FD74FFFBFA12079A78978A
:100A6E00EEF208EFF218E2FC08E2FDECF58CEDF583
:010A7E008AED
:010A7F002254
:0C0A80007860EFF208EAF208EBF2AE0535
:100A8C007860E2FDC4333354C0FFE58E54BF4FF59C
:100A9C008EEEC454F0FFE58954CF4FF589EEB402C5
:100AAC000F1207907863EEF208EFF2F58DF58B22BA
:100ABC007861E2FE08E2FF7860E2FD120796786347
:100ACC00EEF208EFF218E2FC08E2FDECF58DEDF524
:010ADC008B8E
:010ADD0022F6
:0C05A000EFF208EDF2AE02AF0318E2FB30
:0A05AC007896EEF208EFF208EDF287
:1005B6000812022000A8C000EB701B7899E2FC0824
:1005C600E2FD08E2FE08E2FFE47B0CFAF9F812010C
:1005D6007178991202147899E2FC08E2FD08E2FEAD
:1005E60008E2FFC004C005C006C0077898E22401EF
:1005F600FFE433FE7896E2FC08E2FD12007FAB07CB
:10060600AA06E4F9F8D007D006D005D00412017185
:100616007899120214E47FFF7EFFFDFC7899E2FBD5
:1006260008E2F908E2FA08E2CBF8D3120203400422
:10063600E4FEFF2278990808E2FE08E2FFC374FF91
:060646009FFF74FF9EFE01
:01064C00228B
:020DD100789414
:100DD3001205A0AD07AC067894E225E025E0FFE517
:100DE3008E54FB4FF58E43BA8008E290FEA2F05377
:0A0DF300BA7FECF5D6AF05EFF5D797
:010DFD0022D3
:020C27007865EE
:100C29001205A0AD07AC067865E225E0FFE5D154D1
:100C3900FD4FF5D143BA8008E290FEA3F053BA7F85
:100C4900ECF5D4AF05EFF5D57869E2C43354E0FF8C
:070C5900E5AF54DF4FF5AFDA
:010C60002271
:020BEA00786A27
:100BEC001205A0AD07AC06786AE2C43354E0FFE509
:100BFC00D154DF4FF5D143BA8008E290FEA4F053F4
:100C0C00BA7FECF5D2AF05EFF5D3786EE2C433338F
:0A0C1C0054C0FFE5AF54BF4FF5AF21
:010C260022AB
:10064D00E2FC08E2FD08E2FE08E2FF789F120214C8
:08065D007F007EC07DA87C0037
:05066500789A12021456
:10066A00E47F04FEFDFC789FE2FB08E2F908E2FA67
:10067A0008E2CBF81200E6C004A905AA06AB07787F
:10068A009AE2FC08E2FD08E2FE08E2FFD00012014D
:10069A007178A3120214789EE2701B78A3E2FC0818
:1006AA00E2FD08E2FE08E2FFE47B0CFAF9F8120127
:1006BA007178A3120214E47FFF7EFFFDFC78A3E2A7
:1006CA00FB08E2F908E2FA08E2CBF8D31202034087
:1006DA0004E4FEFF2278A30808E2FE08E2FFC3E46E
:0506EA009FFFE49EFEED
:0106EF0022E8
:100B2700E58E54FE4FF58EEF701BEDC4333354C082
:100B3700FFE58E54BF4FF58E5389CFEAFF8F8DEBBC
:100B4700F58BD28E22AF05EF25E025E0FFE58E5429
:100B5700FB4FF58EEAFF8FD6EBF5D7E58E54EF44C2
:040B670010F58E22D5
:070E6B007894EFF208EDF2AC
:100E7200C29FD29E789EF2789612064DAB07AA06C2
:0A0E82007894E2FF08E2FD020B275E
:070E8C00786FEFF208EDF2B0
:100E9300D29FD29E789EF2787112064DAB07AA06B6
:0A0EA300786FE2FF08E2FD020B2762
:080003008F993099FDC299228A
:100F1900AE07EEC4540F90000093FF120003EE5485
:060F29000F93FF0200031C
:100CD1007875EBF208EAF208E9F27875E2FB08E2CE
:100CE100FA08E2F9120066601A7875E2FB0808E278
:100CF100F92401F218E2FA3400F2120066FF120040
:040D01000380D72272
:080059008F993099FDC2992234
:040DA1007878EFF27D
:100DA500789EF2787912064DAD07AC067878E22583
:100DB500E025E0FFE58E54FB4FF58EECF5D6AF054B
:0B0DC500EFF5D7E58E54EF4410F58EDB
:010DD0002200
:0B0F67008F9BE59A30E1FB539AFD22BE
:100F2F00AE07EEC4540F90000093FF120F67EE54FC
:060F3F000F93FF020F6793
:100D0500787DEBF208EAF208E9F2787DE2FB08E289
:100D1500FA08E2F9120066601A787DE2FB0808E23B
:100D2500F92401F218E2FA3400F2120066FF120FFC
:040D35006780D722DA
:040D39007880EFF2DD
:100D3D0053ACBFE2789EF2788112064DAD07AC063A
:100D4D007880E225E025E0FFE58E54FB4FF58EEC33
:0F0D5D00F5D6AF05EFF5D7E58E54EF4410F58EC0
:010D6C002264
:040C9A007885EFF278
:100C9E00E5AC54BF4440F5AC789EEFF27886120670
:100CAE004DAD07AC067885E225E0FFE5D154FD4F4A
:100CBE00F5D1ECF5D4AF05EFF5D5E5D154F74408F1
:020CCE00F5D15E
:010CD0002201
:040D6D00788AEFF29F
:100D71005384BFE2789EF2788B12064DAD07AC0624
:100D8100788AE225E025E0FFE58E54FB4FF58EECF5
:0F0D9100F5D6AF05EFF5D7E58E54EF4410F58E8C
:010DA0002230
:040C6100788FEFF2A7
:100C6500E58454BF4440F584789EEFF278901206EF
:100C75004DAD07AC06788FE2C43354E0FFE5D1549F
:100C8500DF4FF5D1ECF5D2AF05EFF5D3E5D1547FC4
:040C95004480F5D1D1
:010C99002238
:1008D2000209BBE493A3F8E493A34003F68001F278
:1008E20008DFF48029E493A3F85407240CC8C33327
:1008F200C4540F4420C8834004F456800146F6DFF6
:10090200E4800B0102040810204080900B6BE47E0F
:10091200019360BCA3FF543F30E509541FFEE493EA
:10092200A360010ECF54C025E060A840B8E493A3B1
:10093200FAE493A3F8E493A3C8C582C8CAC583CADC
:10094200F0A3C8C582C8CAC583CADFE9DEE780BE94
:010BAB000049
:10006600BB010689828A83E0225002E722BBFE0298
:09007600E32289828A83E49322CB
:10007F00EF8DF0A4A8F0CF8CF0A428CE8DF0A42E95
:02008F00FE224F
:10009100BC000BBE0029EF8DF084FFADF022E4CC53
:1000A100F875F008EF2FFFEE33FEEC33FCEE9DEC1C
:1000B100984005FCEE9DFE0FD5F0E9E4CEFD22ED62
:1000C100F8F5F0EE8420D21CFEADF075F008EF2FAC
:1000D100FFED33FD4007985006D5F0F222C398FD9D
:0500E1000FD5F0EA223A
:1000E600E88FF0A4CC8BF0A42CFCE98EF0A42CFCB9
:1000F6008AF0EDA42CFCEA8EF0A4CDA8F08BF0A437
:100106002DCC3825F0FDE98FF0A42CCD35F0FCEB95
:100116008EF0A4FEA9F0EB8FF0A4CFC5F02ECD395A
:0F012600FEE43CFCEAA42DCE35F0FDE43CFC22C7
:1001350075F008758200EF2FFFEE33FECD33CDCC81
:1001450033CCC58233C5829BED9AEC99E582984004
:100155000CF582EE9BFEED9AFDEC99FC0FD5F0D6E1
:10016500E4CEFBE4CDFAE4CCF9A88222B800C1B90B
:100175000059BA002DEC8BF084CFCECDFCE5F0CB49
:10018500F97818EF2FFFEE33FEED33FDEC33FCEB82
:1001950033FB10D703994004EB99FB0FD8E5E4F93D
:1001A500FA227818EF2FFFEE33FEED33FDEC33FC2A
:1001B500C933C910D7059BE99A4007EC9BFCE99A1E
:1001C500F90FD8E0E4C9FAE4CCFB2275F010EF2F63
:1001D500FFEE33FEED33FDCC33CCC833C810D70763
:1001E5009BEC9AE899400AED9BFDEC9AFCE899F89E
:0E01F5000FD5F0DAE4CDFBE4CCFAE4C8F92231
:10020300EB9FF5F0EA9E42F0E99D42F0E89C45F051
:0102130022C8
:0C021400ECF208EDF208EEF208EFF22226
:10022000D083D082E493F208740193F208740293AD
:09023000F208740393F2740473E4
:10023900EC8EF0A4CCC5F0CCCDF8EFA4CEC5F02D52
:10024900FDE43CFCE8A42EC8C5F03DFDE43CFCEF10
:0D025900A4FFE5F028FEE43DFDE43CFC229E
:00000001FF
