:030000000205E610
:0C05E600787FE4F6D8FD75810702062D31
:0B0E7E000D0A0068656C6C6F0D0A0027
:040E940082040000D4
:100DAC00E5BC54F0440AF5BCE5DE54F04401F5DE34
:0C0DBC0053DEDFE5BC547F4480F5BC2210
:100672007800E2FB08E2F908E2FA08E2CBF8C000EF
:100682007810E2FC08E2FD08E2FE08E2D000C39B1B
:10069200FFEE9AFEED99FDEC98FCE47BD07A07F927
:1006A200F8C312021550507810E2FC08E2FD08E28D
:1006B200FE08E2FF78001202E443BC400000E5BC01
:1006C20030E5FB53BCDFAFBDEF75F005A4FFAEF024
:1006D2007C007DFF1200A37C047DF41200917869F6
:1006E200EEF208EFF27BFE7A007906120BAD7BFF89
:0706F2007A0E797E120BADB8
:0106F90022DE
:03000B00020916D1
:10091600C0E0C0F0C083C082C0D075D000C000C0A7
:1009260001C002C003C004C005C006C0077805E2C6
:100936002401F218E23400F208E2B4E81218E2B434
:10094600030DE4F208F27BFF7A0E7981120BADD02B
:1009560007D006D005D004D003D002D001D000D0F5
:0A096600D0D082D083D0F0D0E03270
:030063000209C6C9
:1009C600C0E0C0F0C083C082C0D075D000C000C0F7
:1009D60004C005C006C0077810E2FC08E2FD08E284
:1009E600FE08E22401FFE43EFEE43DFDE43CFC7823
:1009F600101202E4D007D006D005D004D000D0D023
:090A0600D082D083D0F0D0E032A0
:100D0E00E4F5917592FF75B1C475B23B43BA80900C
:100D1E00FE13E0543F44C0F053BA7F75C910E4F59A
:020D2E00CA22D7
:100B3E00120061120D0E786B1202F00001C2007DE0
:100B4E0001E4FF120D307B647A007DFF7F01120CF1
:100B5E00E1E5AF54FB4404F5AFD2AFE58E54EF445C
:080B6E0010F58E12067280FBE7
:100E510043BC400000E5BC30E5FB53BCDFAFBD2225
:100DC80043BC400000E5BC30E5FB53BCDFAFBDEFE2
:0B0DD800FEADBE7C00E42DFFEC3EFEF3
:010DE30022ED
:030E990004510100
:01006100227C
:100DFC00E4FBFAF59D8FA6AF058F9FF59EEB1B705C
:060E0C00011A144A70F700
:010E120022BD
:100D7200900E99E493FC740193FDED1D70011C1417
:0C0D82004C70F7EF1F70011E144E70E45F
:010D8E002242
:100E3F00900E9BE493FDDDFEEF1F70011E144E70AC
:010E4F00EFB3
:010E5000227F
:0A05490008E2FE08E2FF7BFF7A00E3
:0F0553007814EEF208EFF208EAF208EBF2A905CD
:10056200081202F000A8C000E9701B7818E2FC082B
:10057200E2FD08E2FE08E2FFE47B0CFAF9F8120160
:100582008378181202E47818E2FC08E2FD08E2FE21
:1005920008E2FFC006C0077814E2FE08E2FBAA06E2
:1005A200E4F9F8D007D00612018378181202E47831
:1005B20016E2FE08E2FFE4FCFD08E2FB08E2F908AD
:1005C200E2FA08E2CBF8D31202154004E4FEFF225D
:1005D20078180808E2FE08E2FFC37817E29FFF18C6
:0305E200E29EFE98
:0105E50022F3
:0C085A00781CEFF208EAF208EBF2AE05A1
:10086600781CE2FDC43333335480FFE58E547F4F4A
:10087600F58EE58954FC4EF589EEB4020F12054952
:10088600781FEEF208EFF2F58CF58A22781DE2FE6B
:1008960008E2FF781CE2FD74FFFBFA120553781F8D
:1008A600EEF208EFF218E2FC08E2FDECF58CEDF54D
:0108B6008AB7
:0108B700221E
:0C08B8007821EFF208EAF208EBF2AE053E
:1008C4007821E2FDC4333354C0FFE58E54BF4FF5A5
:1008D4008EEEC454F0FFE58954CF4FF589EEB4028F
:1008E4000F1205497824EEF208EFF2F58DF58B220C
:1008F4007822E2FE08E2FF7821E2FD12054F782417
:10090400EEF208EFF218E2FC08E2FDECF58DEDF5ED
:010914008B57
:0109150022BF
:0C03F900EFF208EDF2AE02AF0318E2FBD9
:0A040500786BEEF208EFF208EDF25A
:10040F00081202F000A8C000EB701B786EE2FC0827
:10041F00E2FD08E2FE08E2FFE47B0CFAF9F81201B4
:10042F0083786E1202E4786EE2FC08E2FD08E2FEC9
:10043F0008E2FFC004C005C006C007786DE22401C2
:10044F00FFE433FE786BE2FC08E2FD120091AB078C
:10045F00AA06E4F9F8D007D006D005D0041201831C
:10046F00786E1202E4E47FFF7EFFFDFC786EE2FB04
:10047F0008E2F908E2FA08E2CBF8D31202154004B9
:10048F00E4FEFF22786E0808E2FE08E2FFC374FF65
:06049F009FFF74FF9EFEAA
:0104A5002234
:020CE100786930
:100CE3001203F9AD07AC067869E225E025E0FFE5DC
:100CF3008E54FB4FF58E43BA8008E290FEA2F05368
:0A0D0300BA7FECF5D6AF05EFF5D787
:010D0D0022C3
:020ACB0078268B
:100ACD001203F9AD07AC067826E225E0FFE5D15417
:100ADD00FD4FF5D143BA8008E290FEA3F053BA7FE3
:100AED00ECF5D4AF05EFF5D5782AE2C43354E0FF29
:070AFD00E5AF54DF4FF5AF38
:010B040022CE
:020A5300782BFE
:100A55001203F9AD07AC06782BE2C43354E0FFE589
:100A6500D154DF4FF5D143BA8008E290FEA4F0538C
:100A7500BA7FECF5D2AF05EFF5D3782FE2C4333367
:0A0A850054C0FFE5AF54BF4FF5AFBA
:010A8F002244
:1004A600E2FC08E2FD08E2FE08E2FF78741202E4CC
:0804B6007F007EC07DA87C00E0
:0504BE00786F1202E45A
:1004C300E47F04FEFDFC7874E2FB08E2F908E2FA3B
:1004D30008E2CBF81200F8C004A905AA06AB077816
:1004E3006FE2FC08E2FD08E2FE08E2FFD000120121
:1004F3008378781202E47873E2701B7878E2FC0860
:10050300E2FD08E2FE08E2FFE47B0CFAF9F81201CF
:100513008378781202E4E47FFF7EFFFDFC7878E2C3
:10052300FB08E2F908E2FA08E2CBF8D3120215401D
:1005330004E4FEFF2278780808E2FE08E2FFC3E441
:050543009FFFE49EFE95
:010548002290
:100A0F00E58E54FE4FF58EEF701BEDC4333354C09B
:100A1F00FFE58E54BF4FF58E5389CFEAFF8F8DEBD5
:100A2F00F58BD28E22AF05EF25E025E0FFE58E5442
:100A3F00FB4FF58EEAFF8FD6EBF5D7E58E54EF44DB
:040A4F0010F58E22EE
:070D30007869EFF208EDF213
:100D3700C29FD29E7873F2786B1204A6AB07AA06FD
:0A0D47007869E2FF08E2FD020A0FDE
:070D51007830EFF208EDF22B
:100D5800D29FD29E7873F278321204A6AB07AA0605
:0A0D68007830E2FF08E2FD020A0FF6
:080003008F993099FDC299228A
:100E1300AE07EEC4540F90000093FF120003EE548C
:060E23000F93FF02000323
:100BAD00787CEBF208EAF208E9F2787CE2FB08E2E5
:100BBD00FA08E2F9120066601A787CE2FB0808E296
:100BCD00F92401F218E2FA3400F2120066FF120065
:040BDD000380D72298
:080059008F993099FDC2992234
:040CB1007836EFF2B0
:100CB5007873F278371204A6AD07AC067836E225CC
:100CC500E025E0FFE58E54FB4FF58EECF5D6AF053C
:0B0CD500EFF5D7E58E54EF4410F58ECC
:010CE00022F1
:0B0E89008F9BE59A30E1FB539AFD229D
:100E2900AE07EEC4540F90000093FF120E89EE54E2
:060E39000F93FF020E8979
:100BE100783BEBF208EAF208E9F2783BE2FB08E233
:100BF100FA08E2F9120066601A783BE2FB0808E2A3
:100C0100F92401F218E2FA3400F2120066FF120E22
:040C11008980D722DD
:040C1500783EEFF244
:100C190053ACBFE27873F2783F1204A6AD07AC0675
:100C2900783EE225E025E0FFE58E54FB4FF58EEC9A
:0F0C3900F5D6AF05EFF5D7E58E54EF4410F58EE5
:010C48002289
:040B76007843EFF2DF
:100B7A00E5AC54BF4440F5AC7873EFF27844120404
:100B8A00A6AD07AC067843E225E0FFE5D154FD4F58
:100B9A00F5D1ECF5D4AF05EFF5D5E5D154F7440816
:020BAA00F5D183
:010BAC002226
:040C49007848EFF206
:100C4D005384BFE27873F278491204A6AD07AC065F
:100C5D007848E225E025E0FFE58E54FB4FF58EEC5C
:0F0C6D00F5D6AF05EFF5D7E58E54EF4410F58EB1
:010C7C002255
:040B0500784DEFF246
:100B0900E58454BF4440F5847873EFF2784E1204BB
:100B1900A6AD07AC06784DE2C43354E0FFE5D154E5
:100B2900DF4FF5D1ECF5D2AF05EFF5D3E5D1547F21
:040B39004480F5D12E
:010B3D002295
:0E0E70007865E2FC08E2FD08E2FE08E2FF22DF
:100D8F007865E2FC08E2FD08E2FE08E2240AFFE4CF
:0D0D9F003EFEE43DFDE43CFC78650202E40C
:100A900078521202E4740112007F7865E2FC08E2E9
:100AA000FD08E2FE08E2FF9000011202907852E297
:100AB000FC08E2FD08E2FE08E2FF90000512029049
:0B0AC000900009120309000000002252
:100970007856EBF208EAF208E9F27856E2FB08E270
:10098000FA08E22401F9E43AFAC003C002C00112F5
:1009900002267856E2FB08E2FA08E2F99000051216
:1009A00002B4EF2BFFEE3AFEED39FDEC38FCD0013E
:1009B000D002D0031202767856E2FB08E2FA08E28F
:0609C000F9740102007F42
:100DE4007865E2FC08E2FD08E2FE08E2FF900001FB
:080DF400120290740102007F5D
:100782007859EBF208EAF208E9F27859E2FB08E25A
:10079200FA08E2F9120066FE7002FF22EEB40203CA
:1007A2007F01229000011202B4C0007865E2FC08C9
:1007B200E2FD08E2FE08E2D000C39BFFEE9AFEEDE6
:1007C20099FDEC98FC7859E2FB08E2FA08E2F9900C
:1007D20000051202B4D312021550127859E2FB0836
:1007E200E2FA08E2F9740212007F7F01227F0022FE
:0F0E6100E412007F900009120309000000002234
:10000E00785CEBF208EAF208E9F2785CE2FB08E2CF
:10001E00FA08E2F99000051202B4C0007865E2FC1D
:10002E0008E2FD08E2FE08E2D000C39BFFEE9AFE56
:10003E00ED99FDEC98FC785CE2FB08E2FA08E2F937
:0B004E00900001120290740202007F7B
:1006FA00785FEBF208EAF208E9F2785FE2FB08E2D7
:10070A00FA08E2F9120066B4016DE412007F785F1C
:10071A00E2FB08E2FA08E2F99000011202B4C00012
:10072A007865E2FC08E2FD08E2FE08E2D000C39B1D
:10073A00FFEE9AFEED99FDEC98FCC004C005C006D8
:10074A00C007785FE2FB08E2FA08E2F990000512B6
:10075A000246D003D002D001D000C3EF9BFFEE9A2D
:10076A00FEED99FDEC98FC785FE2FB08E2FA08E2FC
:08077A00F9900009120290221F
:1007F2007862EBF208EAF208E9F27862E2FB08E2D8
:10080200FA08E2F9900009120246E4FBFAF9F8C389
:1008120012021550427862E2FB08E2FA08E2F97429
:100822000112007F7865E2FC08E2FD08E2FE08E2C0
:10083200FF7862E2FB08E2FA08E2F9900001120294
:100842009090000912024690000512029090000951
:0808520012030900000000225E
:100C7D009000051202469000011202B4EB2FFFEA1C
:100C8D003EFEE93DFDE83CFC7865E2FB08E2F90833
:100C9D00E2FA08E2CBF8C3EF9BFFEE9AFEED99FD69
:040CAD00EC98FC22A1
:1005F200020B3EE493A3F8E493A34003F68001F2D6
:1006020008DFF48029E493A3F85407240CC8C33309
:10061200C4540F4420C8834004F456800146F6DFD8
:10062200E4800B0102040810204080900E94E47EC6
:10063200019360BCA3FF543F30E509541FFEE493CD
:10064200A360010ECF54C025E060A840B8E493A394
:10065200FAE493A3F8E493A3C8C582C8CAC583CABF
:10066200F0A3C8C582C8CAC583CADFE9DEE780BE77
:010E98000059
:10006600BB010689828A83E0225002E722BBFE0298
:09007600E32289828A83E49322CB
:10007F00BB010689828A83F0225002F722BBFE0160
:02008F00F3225A
:10009100EF8DF0A4A8F0CF8CF0A428CE8DF0A42E83
:0200A100FE223D
:1000A300BC000BBE0029EF8DF084FFADF022E4CC41
:1000B300F875F008EF2FFFEE33FEEC33FCEE9DEC0A
:1000C300984005FCEE9DFE0FD5F0E9E4CEFD22ED50
:1000D300F8F5F0EE8420D21CFEADF075F008EF2F9A
:1000E300FFED33FD4007985006D5F0F222C398FD8B
:0500F3000FD5F0EA2228
:1000F800E88FF0A4CC8BF0A42CFCE98EF0A42CFCA7
:100108008AF0EDA42CFCEA8EF0A4CDA8F08BF0A424
:100118002DCC3825F0FDE98FF0A42CCD35F0FCEB83
:100128008EF0A4FEA9F0EB8FF0A4CFC5F02ECD3948
:0F013800FEE43CFCEAA42DCE35F0FDE43CFC22B5
:1001470075F008758200EF2FFFEE33FECD33CDCC6F
:1001570033CCC58233C5829BED9AEC99E5829840F2
:100167000CF582EE9BFEED9AFDEC99FC0FD5F0D6CF
:10017700E4CEFBE4CDFAE4CCF9A88222B800C1B9F9
:100187000059BA002DEC8BF084CFCECDFCE5F0CB37
:10019700F97818EF2FFFEE33FEED33FDEC33FCEB70
:1001A70033FB10D703994004EB99FB0FD8E5E4F92B
:1001B700FA227818EF2FFFEE33FEED33FDEC33FC18
:1001C700C933C910D7059BE99A4007EC9BFCE99A0C
:1001D700F90FD8E0E4C9FAE4CCFB2275F010EF2F51
:1001E700FFEE33FEED33FDCC33CCC833C810D70751
:1001F7009BEC9AE899400AED9BFDEC9AFCE899F88C
:0E0207000FD5F0DAE4CDFBE4CCFAE4C8F9221E
:10021500EB9FF5F0EA9E42F0E99D42F0E89C45F03F
:0102250022B6
:10022600BB010789828A830203395005E9F8020374
:100236002DBBFE05E9F802034589828A8302035134
:10024600BB010DE58229F582E5833AF58302033980
:100256005007E92582F802032DBBFE07E92582F83F
:10026600020345E58229F582E5833AF583020351C7
:10027600BB010789828A830203A35005E9F80203BA
:0A02860097BBFE05E9F80202E4222E
:10029000BB010DE58229F582E5833AF5830203A3CC
:1002A0005007E92582F8020397BBFE07E92582F88B
:0402B0000202E42240
:1002B400BB010DE58229F582E5833AF58302036EDD
:1002C4005007E92582F8020361BBFE07E92582F89D
:1002D40002037AE58229F582E5833AF583020387EE
:0C02E400ECF208EDF208EEF208EFF22256
:1002F000D083D082E493F208740193F208740293DD
:09030000F208740393F274047313
:10030900BB010DE58229F582E5833AF5830203C82D
:100319005007E92582F80203AFBBFE07E92582F8F9
:040329000202F022BA
:0C032D00E6FC08E6FD08E6FE08E6FF22FC
:0C033900E0FCA3E0FDA3E0FEA3E0FF2237
:0C034500E2FC08E2FD08E2FE08E2FF22F4
:10035100E493FC740193FD740293FE740393FF22F2
:0D036100E6FB08E6F908E6FA08E6CBF8220C
:0C036E00E0F8A3E0F9A3E0FAA3E0FB2212
:0D037A00E2FB08E2F908E2FA08E2CBF82203
:10038700E493F8740193F9740293FA740393FB22CC
:0C039700ECF608EDF608EEF608EFF62292
:0C03A300ECF0A3EDF0A3EEF0A3EFF022CD
:1003AF00D083D082E493F608740193F60874029315
:0903BF00F608740393F67404734C
:1003C800A8828583F0D083D0821203DF1203DF1264
:1003D80003DF1203DFE473E493A3C583C5F0C58389
:1003E800C8C582C8F0A3C583C5F0C583C8C582C87F
:0103F80022E2
:00000001FF
