:030000000209945E
:0C099400787FE4F6D8FD7581200209DBB5
:100CB600A027423F065B4F666D7D077F6F408077BA
:100CC6007C395E79713D76061E753837545C736BD8
:100CD600506D781C1C2A766E5B0083280102038403
:100CE6000000000000810400C180C18181160086D9
:0F0CF6001F000100010001816900813000C1026F
:100A8900E4FD78B174FEF2087400F2087425F2E509
:100A9900C7547F4480F5C7C2AFED2400E43404F5A0
:100AA900C3EDF5C4E5C554FC4401F5C575C65A75D1
:100AB900C6A5000053C5FCD2AFE5C730E40553C74E
:100AC900EF801478B1E2FB08E2FA08E2F98D827549
:0F0AD9008300E5C21200AC0DEDB403BB53C77F21
:010AE80022EB
:100AE900E4FD78B374FEF2087400F2087425F2E5A7
:100AF900C7547F4480F5C778B3E2FB08E2FA08E2FD
:100B0900F98D8275830012007FF5C2C2AFED240012
:100B1900E43404F5C3EDF5C4E5C554FC4402F5C558
:100B290075C65A75C6A5000053C5FCD2AFE5C730D6
:0D0B3900E40353C7EF0DEDB403BD53C77FB8
:010B4600228C
:100E2900EF1392B4EFC313139290EF1313543F13BC
:100E39009292EF131313541F139293EFC4540F1389
:100E49009294EFC4135407139295EFC413135403E8
:0E0E5900139296EFC4131313540113929722B1
:07120A00D2B1D2B0D2B32231
:1010B700AE0712120A74282EF8E2FF120E29EE1458
:1010C700600A14600A24027008C2B122C2B022C2A8
:0210D700B32242
:100D06007800E2FC08E2FD08E2FE08E2FF782CE249
:100D1600FB08E2F908E2FA08E2CBF8C312025260D5
:100D260029782CE2FC08E2FD08E2FE08E2FF7800E2
:100D36001202637804E2FF1210B77804E2C3940249
:0A0D46005004E204F222E47804F203
:010D50002280
:1002B50078B17402F27835E270030203F024FE602F
:1002C5005B14700302036E240260030204DB78559D
:1002D500E27828F27856E27829F27868E2782AF20C
:1002E5007806E2FB08E2F908E2FA08E2CBF8C0007A
:1002F500782CE2FC08E2FD08E2FE08E2D000C39B90
:10030500FFEE9AFEED99FDEC98FCE47BC8FAF9F84E
:10031500C312025240030204DB0203E97859E27872
:1003250028F2785CE27829F27868E2782AF2780691
:10033500E2FB08E2F908E2FA08E2CBF8C000782C03
:10034500E2FC08E2FD08E2FE08E2D000C39BFFEEF6
:100355009AFEED99FDEC98FCE47BC8FAF9F8C31216
:10036500025240030204DB807B7851E27828F27860
:1003750025E2FF75F00A842442F8E27829F2EF7548
:10038500F00A84744225F0F8E2782AF27825E2FF33
:100395007805E26F6014EFF2782CE2FC08E2FD08C4
:1003A500E2FE08E2FF78061202637806E2FB08E245
:1003B500F908E2FA08E2CBF8C000782CE2FC08E282
:1003C500FD08E2FE08E2D000C39BFFEE9AFEED9920
:1003D500FDEC98FCE47B2C7A01F9F8C3120252403B
:1003E500030204DBE47835F20204C978310808E237
:1003F500FE08E2FBAA0678B1E2C364809480403B24
:10040500D3EB9400EA940040117C007D0AAF03AE63
:10041500021200E074422DF880027868E2FF78B19C
:10042500E2FE14F274282EF8EFF27C007D0AAF0389
:10043500AE021200E0AA06AB0780BB7829E2FF787E
:100445004DE2FEEF4E7829F27806E2FB08E2F90864
:10045500E2FA08E2CBF8C000782CE2FC08E2FD08DD
:10046500E2FE08E2D000C39BFFEE9AFEED99FDEC9B
:1004750098FCE47B2C7A01F9F8C31202525057E438
:100485007F547E01FDFC7831E2FB08E2F908E2FACF
:1004950008E2CBF8120252400778357401F2802445
:1004A500E47FC8FEFDFC7831E2FB08E2F908E2FAD8
:1004B50008E2CBF8C3120252783550057402F28077
:1004C500037403F2782CE2FC08E2FD08E2FE08E280
:0604D500FF78061202632D
:0104DB0022FE
:100EA400782BE214600A14601A2402702E0202B530
:100EB400785DE27828F2784CE27829F27826E22408
:100EC4004280137860E27828F2784CE27829F2784C
:0C0ED40027E2C3132443F8E2782AF2223C
:10115A00E5BC54F0440AF5BCE5DE54F04401F5DE82
:0C116A0053DEDFE5BC547F4480F5BC225E
:100A2000780AE2FB08E2F908E2FA08E2CBF8C00033
:100A3000782CE2FC08E2FD08E2FE08E2D000C39B4D
:100A4000FFEE9AFEED99FDEC98FCE47BC8FAF9F80C
:100A5000C31202525032782CE2FC08E2FD08E2FE9A
:100A600008E2FF780A1202631211E7EF75F005A49D
:100A7000FFAEF07C007D7F120288E47BFFFAF9F87C
:080A80001201C078311202637B
:010A8800224B
:0C064D0020B6030206DD3000030206DDCB
:10065900780EE2FB08E2F908E2FA08E2CBF8C000FA
:10066900782CE2FC08E2FD08E2FE08E2D000C39B18
:10067900FFEE9AFEED99FDEC98FC78B3120263D275
:1006890000E47FC8FEFDFC78B3E2FB08E2F908E26A
:10069900FA08E2CBF8D312025240037F0222E47F28
:1006A90014FEFDFC78B3E2FB08E2F908E2FA08E27D
:1006B900CBF8D31202524036E47F3CFEFDFC78B3FE
:1006C900E2FB08E2F908E2FA08E2CBF8120252501A
:0406D9001D7F01225E
:1006DD0020B617300014C200782CE2FC08E2FD08A9
:0C06ED00E2FE08E2FF780E1202637F00BC
:0106F90022DE
:0C06FA0020B70302078A30010302078AC0
:100706007812E2FB08E2F908E2FA08E2CBF8C00048
:10071600782CE2FC08E2FD08E2FE08E2D000C39B6A
:10072600FFEE9AFEED99FDEC98FC78B3120263D2C7
:1007360001E47FC8FEFDFC78B3E2FB08E2F908E2BB
:10074600FA08E2CBF8D312025240037F0222E47F7A
:1007560014FEFDFC78B3E2FB08E2F908E2FA08E2CF
:10076600CBF8D31202524036E47F3CFEFDFC78B350
:10077600E2FB08E2F908E2FA08E2CBF8120252506C
:040786001D7F0122B0
:10078A0020B717300114C201782CE2FC08E2FD08F8
:0C079A00E2FE08E2FF78121202637F000A
:0107A6002230
:1004DC0012064D78B1EFF21206FA78B2EFF2782BE1
:1004EC00E21470030205BC1470030205F7240260C9
:1004FC000302064C78B1E2B4012978167401F27843
:10050C002CE2FC08E2FD08E2FE08E2FF781712027A
:10051C00637825E2C394635005E204F280057825E4
:10052C007401F278B2E2B4012978167401F2782CD5
:10053C00E2FC08E2FD08E2FE08E2FF781712026313
:10054C007825E2D394014005E214F28005782574F5
:10055C0063F27816E2B4013D08E2FB08E2F908E226
:10056C00FA08E2CBF8C000782CE2FC08E2FD08E2C5
:10057C00FE08E2D000C39BFFEE9AFEED99FDEC98CD
:10058C00FCE47BD07A07F9F8C31202525007E478E6
:10059C0016F2120AE978B1E2B40205782B7401F272
:1005AC0078B2E26402600302064C782B7402F222E9
:1005BC0078B1E2FFB401127826E2C394035005E24D
:1005CC0004F2800578267401F278B2E2B401127854
:1005DC0026E2D394014005E214F2800578267403D8
:1005EC00F2EFB40204E4782BF2803E78B1E2B4016D
:1005FC00137827E2C394055006E22402F2800578B2
:10060C00277401F278B2E2FFB401137827E2D39495
:10061C00014006E224FEF2800578277405F2EFB45F
:10062C000207120AE9E4782BF278167401F2782C9E
:10063C00E2FC08E2FD08E2FE08E2FF781712026312
:01064C00228B
:03000B00020D5192
:100D5100C0E0C0D075D000C000C001C0077830E24B
:100D610025E02437F97869E204FFF2D3E39F19E320
:100D71009400501CE4F27827E2FF7830E204F2C3D9
:100D81009F4002C28C7830E2241FF8E224FF929146
:0B0D9100D007D001D000D0D0D0E0325D
:03006300020D9CEF
:100D9C00C0E0C0F0C083C082C0D075D000C000C01D
:100DAC0004C005C006C007782CE2FC08E2FD08E28E
:100DBC00FE08E22401FFE43EFEE43DFDE43CFC7849
:100DCC002C120263D007D006D005D004D000D0D0AE
:090DDC00D082D083D0F0D0E032C7
:10000E00E4FD7827E214FFEDC39F501CED25E0249C
:10001E0036F8E4F2087404F2ED25E02438F8E4F240
:10002E00087405F20D0D80DA7826E2FF18E28FF0E3
:10003E00A4FFED25E02436F8E5F0F208EFF2ED2509
:10004E00E02438F8E4F2087464F2E47830F2D28CEA
:02005E00C2914D
:01006000227D
:100C5F0030CC3F200250781BE2FB08E2F908E2FAA1
:100C6F0008E2CBF8C000782CE2FC08E2FD08E2FEB7
:100C7F0008E2D000C39BFFEE9AFEED99FDEC98FCC5
:100C8F00E47B2C7A01F9F8C31202525019D20202F6
:100C9F00000EC202782CE2FC08E2FD08E2FE08E238
:060CAF00FF781B12026336
:010CB500221C
:1010D900E4F5917592FF75B1C475B23B43BA80903E
:1010E900FE13E0543F44C0F053BA7F75C91075CA66
:0210F9001022C3
:100C030012006175F50B120A891210D912115A7B61
:100C1300E87A03E4FD7F01120B47D2A953B8FDE53F
:100C2300B754FD4402F5B77BC87A007DFF7F0112FC
:100C3300108AE5AF54FB4404F5AFD2AFE58E54EF11
:100C43004410F58EE47835F2782BF2120C5F120E15
:0C0C5300A4120D06120A201204DC80EF2F
:1011E70043BC400000E5BC30E5FB53BCDFAFBD228C
:1011760043BC400000E5BC30E5FB53BCDFAFBDEF30
:0B118600FEADBE7C00E42DFFEC3EFE41
:01119100223B
:0312110004510184
:01006100227C
:10119200E4FBFAF59D8FA6AF058F9FF59EEB1B70C2
:0611A200011A144A70F767
:0111A8002224
:10113D00901211E493FC740193FDED1D70011C14CC
:0C114D004C70F7EF1F70011E144E70E490
:011159002273
:1011D500901213E493FDDDFEEF1F70011E144E7097
:0111E500EF1A
:0111E60022E6
:0A08F70008E2FE08E2FF7BFF7A0032
:0F09010078B6EEF208EFF208EAF208EBF2A90579
:100910000812026F00A8C000E9701B78BAE2FC0858
:10092000E2FD08E2FE08E2FFE47B0CFAF9F81201AE
:10093000C078BA12026378BAE2FC08E2FD08E2FE6F
:1009400008E2FFC006C00778B6E2FE08E2FBAA068E
:10095000E4F9F8D007D0061201C078BA1202637821
:10096000B8E2FE08E2FFE4FCFD08E2FB08E2F90859
:10097000E2FA08E2CBF8D31202524004E4FEFF226E
:1009800078BA0808E2FE08E2FFC378B9E29FFF18D0
:03099000E29EFEE6
:010993002241
:0C0B470078B1EFF208EAF208EBF2AE051C
:100B530078B1E2FDC43333335480FFE58E547F4FC5
:100B6300F58EE58954FC4EF589EEB4020F1208F7B1
:100B730078B4EEF208EFF2F58CF58A2278B2E2FE51
:100B830008E2FF78B1E2FD74FFFBFA12090178B4C1
:100B9300EEF208EFF218E2FC08E2FDECF58CEDF55D
:010BA3008AC7
:010BA400222E
:0C0BA500786AEFF208EAF208EBF2AE0505
:100BB100786AE2FDC4333354C0FFE58E54BF4FF56C
:100BC1008EEEC454F0FFE58954CF4FF589EEB4029F
:100BD1000F1208F7786DEEF208EFF2F58DF58B2222
:100BE100786BE2FE08E2FF786AE2FD1208FD786D9B
:100BF100EEF208EFF218E2FC08E2FDECF58DEDF5FE
:010C01008B67
:010C020022CF
:0C07A700EFF208EDF2AE02AF0318E2FB27
:0A07B30078B3EEF208EFF208EDF261
:1007BD000812026F00A8C000EB701B78B6E2FC08AF
:1007CD00E2FD08E2FE08E2FFE47B0CFAF9F8120103
:1007DD00C078B612026378B6E2FC08E2FD08E2FECC
:1007ED0008E2FFC004C005C006C00778B5E22401C9
:1007FD00FFE433FE78B3E2FC08E2FD1200CEAB0756
:10080D00AA06E4F9F8D007D006D005D0041201C02D
:10081D0078B6120263E47FFF7EFFFDFC78B6E2FB43
:10082D0008E2F908E2FA08E2CBF8D31202524004CA
:10083D00E4FEFF2278B60808E2FE08E2FFC374FF6B
:06084D009FFF74FF9EFEF8
:010853002282
:02108A0078B13B
:10108C001207A7AD07AC0678B1E225E025E0FFE535
:10109C008E54FB4FF58E43BA8008E290FEA2F053BB
:0A10AC00BA7FECF5D6AF05EFF5D7DB
:0110B6002217
:020EE000786F29
:100EE2001207A7AD07AC06786FE225E0FFE5D15403
:100EF200FD4FF5D143BA8008E290FEA3F053BA7FCA
:100F0200ECF5D4AF05EFF5D57873E2C43354E0FFC6
:070F1200E5AF54DF4FF5AF1E
:010F190022B5
:020E670078749D
:100E69001207A7AD07AC067874E2C43354E0FFE576
:100E7900D154DF4FF5D143BA8008E290FEA4F05374
:100E8900BA7FECF5D2AF05EFF5D37878E2C4333306
:0A0E990054C0FFE5AF54BF4FF5AFA2
:010EA300222C
:10085400E2FC08E2FD08E2FE08E2FF787E12026391
:080864007F007EC07DA87C002E
:05086C0078791202631F
:10087100E47F04FEFDFC787EE2FB08E2F908E2FA7F
:1008810008E2CBF8120135C004A905AA06AB077826
:1008910079E2FC08E2FD08E2FE08E2FFD000120165
:1008A100C07882120263787DE2701B7882E2FC08D4
:1008B100E2FD08E2FE08E2FFE47B0CFAF9F812011E
:1008C100C07882120263E47FFF7EFFFDFC7882E242
:1008D100FB08E2F908E2FA08E2CBF8D3120252402F
:1008E10004E4FEFF2278820808E2FE08E2FFC3E486
:0508F1009FFFE49EFEE4
:0108F60022DF
:100DE500E58E54FE4FF58EEF701BEDC4333354C0C2
:100DF500FFE58E54BF4FF58E5389CFEAFF8F8DEBFC
:100E0500F58BD28E22AF05EF25E025E0FFE58E5468
:100E1500FB4FF58EEAFF8FD6EBF5D7E58E54EF4401
:040E250010F58E2214
:0710FB007886EFF208EDF228
:10110200C29FD29E787DF27888120854AB07AA0655
:0A1112007886E2FF08E2FD020DE519
:07111C00788CEFF208EDF200
:10112300D29FD29E787DF2788E120854AB07AA061E
:0A113300788CE2FF08E2FD020DE5F2
:080003008F993099FDC299228A
:1011A900AE07EEC4540F90000093FF120003EE54F3
:0611B9000F93FF0200038A
:100F8A007892EBF208EAF208E9F27892E2FB08E2D8
:100F9A00FA08E2F9120066601A7892E2FB0808E29F
:100FAA00F92401F218E2FA3400F2120066FF120084
:040FBA000380D722B7
:081202008F993099FDC2992279
:04105A007895EFF2A4
:10105E00787DF27896120854AD07AC067895E225A5
:10106E00E025E0FFE58E54FB4FF58EECF5D6AF058F
:0B107E00EFF5D7E58E54EF4410F58E1F
:011089002244
:0B11F7008F9BE59A30E1FB539AFD222C
:1011BF00AE07EEC4540F90000093FF1211F7EE54D8
:0611CF000F93FF0211F76F
:100FBE00789AEBF208EAF208E9F2789AE2FB08E294
:100FCE00FA08E2F9120066601A789AE2FB0808E263
:100FDE00F92401F218E2FA3400F2120066FF12113F
:040FEE00F780D7228F
:040FF200789DEFF205
:100FF60053ACBFE2787DF2789E120854AD07AC067A
:10100600789DE225E025E0FFE58E54FB4FF58EEC5A
:0F101600F5D6AF05EFF5D7E58E54EF4410F58E04
:0110250022A8
:040F530078A2EFF29F
:100F5700E5AC54BF4440F5AC787DEFF278A31208B6
:100F670054AD07AC0678A2E225E0FFE5D154FD4F6A
:100F7700F5D1ECF5D4AF05EFF5D5E5D154F7440835
:020F8700F5D1A2
:010F89002245
:0410260078A7EFF2C6
:10102A005384BFE2787DF278A8120854AD07AC0663
:10103A0078A7E225E025E0FFE58E54FB4FF58EEC1C
:0F104A00F5D6AF05EFF5D7E58E54EF4410F58ED0
:011059002274
:040F1A0078ACEFF2CE
:100F1E00E58454BF4440F584787DEFF278AD120835
:100F2E0054AD07AC0678ACE2C43354E0FFE5D154BF
:100F3E00DF4FF5D1ECF5D2AF05EFF5D3E5D1547F08
:040F4E004480F5D115
:010F5200227C
:1009A000020C03E493A3F8E493A34003F68001F25E
:1009B00008DFF48029E493A3F85407240CC8C33358
:1009C000C4540F4420C8834004F456800146F6DF27
:1009D000E4800B0102040810204080900CB6E47EF5
:1009E000019360BCA3FF543F30E509541FFEE4931C
:1009F000A360010ECF54C025E060A840B8E493A3E3
:100A0000FAE493A3F8E493A3C8C582C8CAC583CA0D
:100A1000F0A3C8C582C8CAC583CADFE9DEE780BEC5
:010D050000ED
:10006600BB010689828A83E0225002E722BBFE0298
:09007600E32289828A83E49322CB
:10007F00BB010CE58229F582E5833AF583E0225036
:10008F0006E92582F8E622BBFE06E92582F8E22280
:0D009F00E58229F582E5833AF583E493229A
:1000AC00F8BB010DE58229F582E5833AF583E8F08A
:1000BC00225006E92582C8F622BBFE05E92582C836
:0200CC00F2221E
:1000CE00EF8DF0A4A8F0CF8CF0A428CE8DF0A42E46
:0200DE00FE2200
:1000E000BC000BBE0029EF8DF084FFADF022E4CC04
:1000F000F875F008EF2FFFEE33FEEC33FCEE9DECCD
:10010000984005FCEE9DFE0FD5F0E9E4CEFD22ED12
:10011000F8F5F0EE8420D21CFEADF075F008EF2F5C
:10012000FFED33FD4007985006D5F0F222C398FD4D
:050130000FD5F0EA22EA
:10013500E88FF0A4CC8BF0A42CFCE98EF0A42CFC69
:100145008AF0EDA42CFCEA8EF0A4CDA8F08BF0A4E7
:100155002DCC3825F0FDE98FF0A42CCD35F0FCEB46
:100165008EF0A4FEA9F0EB8FF0A4CFC5F02ECD390B
:0F017500FEE43CFCEAA42DCE35F0FDE43CFC2278
:1001840075F008758200EF2FFFEE33FECD33CDCC32
:1001940033CCC58233C5829BED9AEC99E5829840B5
:1001A4000CF582EE9BFEED9AFDEC99FC0FD5F0D692
:1001B400E4CEFBE4CDFAE4CCF9A88222B800C1B9BC
:1001C4000059BA002DEC8BF084CFCECDFCE5F0CBFA
:1001D400F97818EF2FFFEE33FEED33FDEC33FCEB33
:1001E40033FB10D703994004EB99FB0FD8E5E4F9EE
:1001F400FA227818EF2FFFEE33FEED33FDEC33FCDB
:10020400C933C910D7059BE99A4007EC9BFCE99ACE
:10021400F90FD8E0E4C9FAE4CCFB2275F010EF2F13
:10022400FFEE33FEED33FDCC33CCC833C810D70713
:100234009BEC9AE899400AED9BFDEC9AFCE899F84E
:0E0244000FD5F0DAE4CDFBE4CCFAE4C8F922E1
:10025200EB9FF5F0EA9E42F0E99D42F0E89C45F002
:010262002279
:0C026300ECF208EDF208EEF208EFF222D7
:10026F00D083D082E493F208740193F2087402935E
:09027F00F208740393F274047395
:10028800EC8EF0A4CCC5F0CCCDF8EFA4CEC5F02D03
:10029800FDE43CFCE8A42EC8C5F03DFDE43CFCEFC1
:0D02A800A4FFE5F028FEE43DFDE43CFC224F
:00000001FF
